{
  "_format": "hh-sol-artifact-1",
  "contractName": "TinyFrogRenderer",
  "sourceName": "contracts/TinyFrogRenderer.sol",
  "abi": [
    {
      "inputs": [
        {
          "internalType": "uint256",
          "name": "",
          "type": "uint256"
        }
      ],
      "name": "accesories",
      "outputs": [
        {
          "internalType": "bytes",
          "name": "",
          "type": "bytes"
        }
      ],
      "stateMutability": "view",
      "type": "function"
    },
    {
      "inputs": [
        {
          "internalType": "uint256",
          "name": "",
          "type": "uint256"
        }
      ],
      "name": "accesories_traits",
      "outputs": [
        {
          "internalType": "string",
          "name": "",
          "type": "string"
        }
      ],
      "stateMutability": "view",
      "type": "function"
    },
    {
      "inputs": [
        {
          "internalType": "uint256",
          "name": "",
          "type": "uint256"
        }
      ],
      "name": "base",
      "outputs": [
        {
          "internalType": "bytes",
          "name": "",
          "type": "bytes"
        }
      ],
      "stateMutability": "view",
      "type": "function"
    },
    {
      "inputs": [
        {
          "internalType": "uint256",
          "name": "",
          "type": "uint256"
        }
      ],
      "name": "baseColorDark",
      "outputs": [
        {
          "internalType": "string",
          "name": "",
          "type": "string"
        }
      ],
      "stateMutability": "view",
      "type": "function"
    },
    {
      "inputs": [
        {
          "internalType": "uint256",
          "name": "",
          "type": "uint256"
        }
      ],
      "name": "baseColorLight",
      "outputs": [
        {
          "internalType": "string",
          "name": "",
          "type": "string"
        }
      ],
      "stateMutability": "view",
      "type": "function"
    },
    {
      "inputs": [
        {
          "internalType": "uint256",
          "name": "",
          "type": "uint256"
        }
      ],
      "name": "base_traits",
      "outputs": [
        {
          "internalType": "string",
          "name": "",
          "type": "string"
        }
      ],
      "stateMutability": "view",
      "type": "function"
    },
    {
      "inputs": [
        {
          "internalType": "uint256",
          "name": "",
          "type": "uint256"
        }
      ],
      "name": "bgPaletteColors",
      "outputs": [
        {
          "internalType": "string",
          "name": "",
          "type": "string"
        }
      ],
      "stateMutability": "view",
      "type": "function"
    },
    {
      "inputs": [
        {
          "internalType": "uint256",
          "name": "",
          "type": "uint256"
        }
      ],
      "name": "fullPalettes",
      "outputs": [
        {
          "internalType": "string",
          "name": "",
          "type": "string"
        }
      ],
      "stateMutability": "view",
      "type": "function"
    },
    {
      "inputs": [
        {
          "internalType": "uint256",
          "name": "seed",
          "type": "uint256"
        }
      ],
      "name": "getDeadSVG",
      "outputs": [
        {
          "internalType": "string",
          "name": "",
          "type": "string"
        }
      ],
      "stateMutability": "view",
      "type": "function"
    },
    {
      "inputs": [
        {
          "internalType": "uint256",
          "name": "seed",
          "type": "uint256"
        },
        {
          "internalType": "bool",
          "name": "showBasedPlatform",
          "type": "bool"
        }
      ],
      "name": "getSVG",
      "outputs": [
        {
          "internalType": "string",
          "name": "",
          "type": "string"
        }
      ],
      "stateMutability": "view",
      "type": "function"
    },
    {
      "inputs": [
        {
          "internalType": "uint256",
          "name": "seed",
          "type": "uint256"
        },
        {
          "internalType": "bool",
          "name": "showBasedPlatform",
          "type": "bool"
        }
      ],
      "name": "getTraitsMetadata",
      "outputs": [
        {
          "internalType": "string",
          "name": "",
          "type": "string"
        }
      ],
      "stateMutability": "view",
      "type": "function"
    },
    {
      "inputs": [
        {
          "internalType": "uint256",
          "name": "seed",
          "type": "uint256"
        }
      ],
      "name": "getUnrevealedSVG",
      "outputs": [
        {
          "internalType": "string",
          "name": "",
          "type": "string"
        }
      ],
      "stateMutability": "view",
      "type": "function"
    },
    {
      "inputs": [
        {
          "internalType": "uint256",
          "name": "",
          "type": "uint256"
        }
      ],
      "name": "misc",
      "outputs": [
        {
          "internalType": "bytes",
          "name": "",
          "type": "bytes"
        }
      ],
      "stateMutability": "view",
      "type": "function"
    },
    {
      "inputs": [
        {
          "internalType": "uint256",
          "name": "",
          "type": "uint256"
        }
      ],
      "name": "platform",
      "outputs": [
        {
          "internalType": "bytes",
          "name": "",
          "type": "bytes"
        }
      ],
      "stateMutability": "view",
      "type": "function"
    },
    {
      "inputs": [
        {
          "internalType": "uint256",
          "name": "",
          "type": "uint256"
        }
      ],
      "name": "platform_traits",
      "outputs": [
        {
          "internalType": "string",
          "name": "",
          "type": "string"
        }
      ],
      "stateMutability": "view",
      "type": "function"
    },
    {
      "inputs": [
        {
          "internalType": "uint256",
          "name": "",
          "type": "uint256"
        }
      ],
      "name": "warts",
      "outputs": [
        {
          "internalType": "bytes",
          "name": "",
          "type": "bytes"
        }
      ],
      "stateMutability": "view",
      "type": "function"
    },
    {
      "inputs": [
        {
          "internalType": "uint256",
          "name": "",
          "type": "uint256"
        }
      ],
      "name": "warts_traits",
      "outputs": [
        {
          "internalType": "string",
          "name": "",
          "type": "string"
        }
      ],
      "stateMutability": "view",
      "type": "function"
    }
  ],
  "bytecode": "0x60066103c08181526533331818333360d11b6103e05260809081526104008281526503030303030360d41b6104205260a0526104408281526533333333333360d11b6104605260c0526104808281526562636263626360d01b6104a05260e0526104c08281526537633763376360d01b6104e052610100526105008281526506638623830360d41b61052052610120526105408281526506630643062360d41b61056052610140526105808281526536383434666360d01b6105a052610160526105c08281526566636663666360d01b6105e052610180526106008281526506638333830360d41b610620526101a052610640828152650cc70c470cc760d31b610660526101c05261068082815265331bb2b2b1b160d11b6106a0526101e0526106c0828152650606068606a760d31b6106e05261020052610700828152650ccc6ca60c2760d31b6107205261022052610740828152650e4d0c0c0e0d60d21b61076052610240526107808281526503030613830360d41b6107a052610260526107c0828152650ca6860606a760d31b6107e05261028052610800828152650cc70c8706e760d31b610820526102a052610840828152650d4e190e0d4d60d21b610860526102c0526108808281526506163376330360d41b6108a0526102e0526108c0828152650c870cc706e760d31b6108e05261030052610900828152651998d84c0d0d60d21b61092052610320526109408281526503530333030360d41b61096052610340526109808281526503030623830360d41b6109a052610360526109c08281526503030363830360d41b6109e05261038052610a40604052610a00918252650c470cc70c4760d31b610a20526103a0919091526200028890600090601a62001dea565b506040518061040001604052806040518060400160405280600281526020016001600160f81b031981525081526020016040518060400160405280601a81526020017fff000e00030103000301160001010300010101000101030001010000000000008152508152602001604051806080016040528060528152602001620056046052913981526020016040518060400160405280601081526020017fef0005051a000105050001051a0005050000000000000000000000000000000081525081526020016040518060600160405280603c81526020016200524a603c913981526020016040518060400160405280601881526020017fee0001010500010119000201030002011a00020101000201000000000000000081525081526020016040518060400160405280602081526020017fee0005011a000101050701011800010107070101170001010607050114000d0181525081526020016040518060400160405280602081526020017fef0005011a000101050701011800010107070101140005010607010113000d0181525081526020016040518060600160405280603c815260200162005c94603c9139815260200160405180606001604052806034815260200162005a046034913981526020016040518060a00160405280606681526020016200574e6066913981526020016040518060600160405280603e815260200162005be2603e9139815260200160405180606001604052806024815260200162004ed66024913981526020016040518060800160405280604c8152602001620057e8604c913981526020016040518060a001604052806074815260200162004cc0607491398152602001604051806060016040528060288152602001620051a860289139815260200160405180608001604052806042815260200162005a3860429139815260200160405180608001604052806056815260200162004bf66056913981526020016040518060600160405280603e815260200162004a6a603e9139815260200160405180608001604052806052815260200162004b2460529139815260200160405180606001604052806024815260200162004c9c60249139815260200160405180608001604052806044815260200162005e0a6044913981526020016040518060600160405280603881526020016200494e6038913981526020016040518060a00160405280607081526020016200528660709139815260200160405180608001604052806046815260200162004d686046913981526020016040518060800160405280604c815260200162005656604c91398152602001604051806060016040528060248152602001620058346024913981526020016040518060800160405280605081526020016200507c60509139815260200160405180606001604052806040815260200162004fc860409139815260200160405180608001604052806050815260200162004c4c6050913981526020016040518060800160405280604481526020016200554660449139815260200160405180608001604052806054815260200162004efa6054913990526200071290600190602062001e4e565b5060408051610440810182526007610400820181815266111959985d5b1d60ca1b6104208401528252825180840184526009808252684579652042726f777360b81b6020838101919091528085019290925284518086018652600580825264486f726e7360d81b82850152858701919091528551808701875260068082526548616c6c6f7760d01b82860152606087019190915286518088018852600a808252692634b3b43a10213ab63160b11b82870152608088019190915287518089018952600f81526e416e677279204579652042726f777360881b8187015260a088015287518089018952600c81526b04261736562616c6c204361760a41b8187015260c088015287518089018952601681527f4261636b7761726473204261736562616c6c20436170000000000000000000008187015260e08801528751808901895260038152622332bd60e91b81870152610100880152875180890189526004808252634166726f60e01b828801526101208901919091528851808a018a528281526942756e6e79204561727360b01b818801526101408901528851808a018a52828152695468756d62205461636b60b01b818801526101608901528851808a018a5290815263466c797360e01b81870152610180880152875180890189528381526457696e677360d81b818701526101a08801528751808901895282815265427562626c6560d01b818701526101c088015287518089018952828152654665646f726160d01b818701526101e0880152875180890189528481526814d85b9d184812185d60ba1b81870152610200880152875180890189528181526915da5e985c990812185d60b21b81870152610220880152875180890189526008815267536f6d627265726f60c01b818701526102408801528751808901895281815269141a5c985d194812185d60b21b81870152610260880152875180890189528181526914d85a5b1bdc8812185d60b21b8187015261028088015287518089018952600e8082526d141c9bdc195b1b195c881219585960921b828801526102a08901919091528851808a018a5296875266151bdc0812185d60ca1b878701526102c088019690965287518089018952600b8082526a56696b696e672048656c6d60a81b828801526102e08901919091528851808a018a528481526421b937bbb760d91b818801526103008901528851808a018a529687526d13195c1c9958da185d5b8812185d60921b8787015261032088019690965287518089018952918252654265616e696560d01b82860152610340870191909152865180880188529283526814185c9d1e4812185d60ba1b83850152610360860192909252855180870187529182526910dbddd89bde4812185d60b21b82840152610380850191909152845180860186528181526414dadd5b1b60da1b818401526103a085015284518086018652908152641219585c9d60da1b818301526103c084015283518085019094529083526a5374696e6b204c696e657360a81b838201526103e082019290925262000b7f916002919062001eae565b50604080516103e0810190915260786103408201818152829162005e4e61036084013981526020016040518060a00160405280607a81526020016200558a607a913981526020016040518060a0016040528060748152602001620050086074913981526020016040518060a00160405280607a8152602001620051d0607a913981526020016040518060a00160405280606e8152602001620049fc606e913981526020016040518060a00160405280606e815260200162005d9c606e913981526020016040518060a001604052806074815260200162005c206074913981526020016040518060a00160405280607c815260200162005b66607c913981526020016040518060a00160405280607c815260200162004aa8607c913981526020016040518060a001604052806068815260200162005d346068913981526020016040518060a0016040528060808152602001620054c66080913981526020016040518060a00160405280607a815260200162005a7a607a913981526020016040518060a00160405280606c8152602001620050cc606c913981526020016040518060a00160405280607c815260200162005858607c913981526020016040518060a00160405280607481526020016200485e6074913981526020016040518060a001604052806072815260200162005af46072913981526020016040518060a001604052806080815260200162005ec66080913981526020016040518060a00160405280607e815260200162005400607e913981526020016040518060c0016040528060888152602001620056a26088913981526020016040518060a0016040528060768152602001620049866076913981526020016040518060a00160405280607a8152602001620052f6607a913981526020016040518060a00160405280607a815260200162004f4e607a913981526020016040518060a00160405280607c8152602001620048d2607c913981526020016040518060a001604052806080815260200162004b766080913981526020016040518060a00160405280607a815260200162004e1c607a913981526020016040518060a00160405280607081526020016200513860709139905262000ebb90600390601a62001f00565b5060408051610380810182526007610340820181815266111959985d5b1d60ca1b6103608401528252825180840184526004808252635065706560e01b602083810191909152808501929092528451808601865260068082526514da1bdad95960d21b82850152858701919091528551808701875260118152704e616e61204e616e6120426f6f20426f6f60781b8185015260608601528551808701875260038082526253757360e81b82860152608087019190915286518088018852600880825267155b985b5d5cd95960c21b8287015260a088019190915287518089018952600a8082526953756e676c617373657360b01b8288015260c08901919091528851808a018a52600580825264135bd9195b60da1b8289015260e08a01919091528951808b018b5281815264416e67727960d81b818901526101008a01528951808b018b5288815266476c617373657360c81b818901526101208a01528951808b018b5283815267436861726d696e6760c01b818901526101408a01528951808b018b52918252694265616479206579657360b01b828801526101608901919091528851808a018a5282815267536c656570696e6760c01b818801526101808901528851808a018a52878152664e6572766f757360c81b818801526101a08901528851808a018a52818152644472756e6b60d81b818801526101c08901528851808a018a5285815263536d756760e01b818801526101e08901528851808a018a528481526529b6b7b5b2b960d11b818801526102008901528851808a018a5284815265536c6565707960d01b818801526102208901528851808a018a5281815264105b195c9d60da1b818801526102408901528851808a018a529687526615d85a5cdd195960ca1b878701526102608801969096528751808901895295865264109b1a5b9960da1b8686015261028087019590955286518088018852828152654772756d707960d01b818601526102a0870152865180880188529081526214d85960ea1b818501526102c086015285518087018752600c81526b547261696c6572205061726b60a01b818501526102e08601528551808701875290815265546f6e67756560d01b8184015261030085015284518086019095529184526743796c636c6f707360c01b908401526103208201929092526200121e9190601a62001dea565b50604080516101408101909152604860c0820181815282916200547e60e08401398152602001604051806060016040528060348152602001620057b46034913981526020016040518060a001604052806064815260200162005cd060649139815260200160405180606001604052806040815260200162004e966040913981526020016040518060a00160405280606e815260200162004dae606e9139815260200160405180606001604052806034815260200162004d34603491399052620012ec90600590600662001f52565b506040805161010081018252600160c08201818152603160f81b60e0840152825282518084018452818152601960f91b6020828101919091528084019190915283518085018552828152603360f81b818301528385015283518085018552828152600d60fa1b81830152606084015283518085018552828152603560f81b8183015260808401528351808501909452908352601b60f91b9083015260a08101919091526200139e906006908162001fa4565b506040518061020001604052806040518060400160405280600281526020016001600160f81b031981525081526020016040518060400160405280601081526020017fff00ff000f0001031c000103220001030000000000000000000000000000000081525081526020016040518060400160405280600c81526020017fff00ff000e0001033d000103000000000000000000000000000000000000000081525081526020016040518060400160405280600e81526020017fff00ed0001033d0001030200010300000000000000000000000000000000000081525081526020016040518060400160405280600c81526020017fff00ff000d00010321000103000000000000000000000000000000000000000081525081526020016040518060600160405280602481526020016200572a6024913981526020016040518060400160405280601481526020017fff00ac0002011d0001010103410001031d00010300000000000000000000000081525081526020016040518060400160405280601a81526020017fff00ca0002011d00010102031d0001010103020001033d00010300000000000081525081526020016040518060400160405280600e81526020017fff00ed0001033d0001032200010300000000000000000000000000000000000081525081526020016040518060400160405280600c81526020017fff00ff000f0001031d000103000000000000000000000000000000000000000081525081526020016040518060400160405280600a81526020017fff00ed0001033d0001030000000000000000000000000000000000000000000081525081526020016040518060400160405280601081526020017fff00cb0001011e0001010103210001030000000000000000000000000000000081525081526020016040518060400160405280600c81526020017fff00ff002e0001031d000103000000000000000000000000000000000000000081525081526020016040518060400160405280601281526020017fff00ed0001033d0001030100010320000103000000000000000000000000000081525081526020016040518060400160405280601e81526020017fff00ac0001011e00010101033c0001011e0001010103020001031c000101000081525081526020016040518060400160405280601481526020017fff00ff000e0002031c000103010002031c00010300000000000000000000000081525081525060079060106200173792919062001ff6565b50604080516102408101825260016102008201818152603160f81b610220840152825282518084018452818152601960f91b6020828101919091528084019190915283518085018552828152603360f81b818301528385015283518085018552828152600d60fa1b81830152606084015283518085018552828152603560f81b81830152608084015283518085018552828152601b60f91b8183015260a084015283518085018552828152603760f81b8183015260c084015283518085018552828152600760fb1b8183015260e084015283518085018552918252603960f81b8282015261010083019190915282518084018452600280825261031360f41b828401526101208401919091528351808501855281815261313160f01b818401526101408401528351808501855281815261189960f11b818401526101608401528351808501855281815261313360f01b8184015261018084015283518085018552818152610c4d60f21b818401526101a08401528351808501855281815261313560f01b818401526101c08401528351808501909452835261189b60f11b908301526101e0810191909152620018f290600890601062002048565b5060405180604001604052806040518061016001604052806101308152602001620058d4610130913981526020016040518060c0016040528060908152602001620053706090913990526200194c9060099060026200209a565b5060408051610240810182526006610200820181815265060606a708c760d31b6102208401528252825180840184528181526541344534464360d01b6020828101919091528084019190915283518085018552828152650887084708c760d31b8183015283850152835180850185528281526504638413443360d41b818301526060840152835180850185528281526508c868a6082760d31b8183015260808401528351808501855282815265084708c7084760d31b8183015260a0840152835180850185528281526530304643464360d01b8183015260c0840152835180850185528281526508870887088760d31b8183015260e084015283518085018552828152650847084708c760d31b81830152610100840152835180850185528281526542434243424360d01b81830152610120840152835180850185528281526534343238424360d01b8183015261014084015283518085018552828152650e4d0c0c0e0d60d21b81830152610160840152835180850185528281526503530333030360d41b8183015261018084015283518085018552828152650606068606a760d31b818301526101a0840152835180850185528281526504138303032360d41b8183018190526101c085019190915284518086019095529184528301526101e081019190915262001b4390600a90601062002048565b5060408051610180810182526006610140820181815265084708c7084760d31b610160840152825282518084018452818152650887084708c760d31b60208281019190915280840191909152835180850185528281526541344534464360d01b818301528385015283518085018552828152650847084708c760d31b818301526060840152835180850185528281526508c7084708c760d31b818301526080840152835180850185528281526504630443042360d41b8183015260a0840152835180850185528281526508c868a6082760d31b8183015260c0840152835180850185528281526508c7088706e760d31b8183015260e08401528351808501855282815265088708c706e760d31b81830152610100840152835180850190945290835265084708c7088760d31b9083015261012081019190915262001c8c90600b90600a620020ec565b506040805161018081018252600661014082018181526506060707070760d31b6101608401528252825180840184528181526503030413830360d41b60208281019190915280840191909152835180850185528281526503030423830360d41b8183015283850152835180850185528281526504143374330360d41b818301526060840152835180850185528281526504534354331360d41b818301526080840152835180850185528281526504638333830360d41b8183015260a0840152835180850185528281526508a6860606a760d31b8183015260c0840152835180850185528281526544383030434360d01b8183015260e0840152835180850185528281526536383434464360d01b81830152610100840152835180850190945290835265060606e708c760d31b9083015261012081019190915262001dd590600c90600a620020ec565b5034801562001de357600080fd5b50620022ab565b82805482825590600052602060002090810192821562001e3c579160200282015b8281111562001e3c578251805162001e2b9184916020909101906200213e565b509160200191906001019062001e0b565b5062001e4a929150620021c9565b5090565b82805482825590600052602060002090810192821562001ea0579160200282015b8281111562001ea0578251805162001e8f9184916020909101906200213e565b509160200191906001019062001e6f565b5062001e4a929150620021ea565b82805482825590600052602060002090810192821562001e3c579160200282015b8281111562001e3c578251805162001eef9184916020909101906200213e565b509160200191906001019062001ecf565b82805482825590600052602060002090810192821562001ea0579160200282015b8281111562001ea0578251805162001f419184916020909101906200213e565b509160200191906001019062001f21565b82805482825590600052602060002090810192821562001ea0579160200282015b8281111562001ea0578251805162001f939184916020909101906200213e565b509160200191906001019062001f73565b82805482825590600052602060002090810192821562001e3c579160200282015b8281111562001e3c578251805162001fe59184916020909101906200213e565b509160200191906001019062001fc5565b82805482825590600052602060002090810192821562001ea0579160200282015b8281111562001ea05782518051620020379184916020909101906200213e565b509160200191906001019062002017565b82805482825590600052602060002090810192821562001e3c579160200282015b8281111562001e3c5782518051620020899184916020909101906200213e565b509160200191906001019062002069565b82805482825590600052602060002090810192821562001ea0579160200282015b8281111562001ea05782518051620020db9184916020909101906200213e565b5091602001919060010190620020bb565b82805482825590600052602060002090810192821562001e3c579160200282015b8281111562001e3c57825180516200212d9184916020909101906200213e565b50916020019190600101906200210d565b8280546200214c906200227a565b90600052602060002090601f016020900481019282620021705760008555620021bb565b82601f106200218b57805160ff1916838001178555620021bb565b82800160010185558215620021bb579182015b82811115620021bb5782518255916020019190600101906200219e565b5062001e4a9291506200220b565b8082111562001e4a576000620021e0828262002222565b50600101620021c9565b8082111562001e4a57600062002201828262002222565b50600101620021ea565b5b8082111562001e4a57600081556001016200220c565b50805462002230906200227a565b6000825580601f1062002241575050565b601f0160209004906000526020600020908101906200226191906200220b565b50565b634e487b7160e01b600052602260045260246000fd5b6002810460018216806200228f57607f821691505b60208210811415620022a557620022a562002264565b50919050565b6125a380620022bb6000396000f3fe608060405234801561001057600080fd5b506004361061010b5760003560e01c806367f02918116100a257806397974b401161007157806397974b401461020a578063af42527f1461021d578063d485204414610230578063e603068814610243578063e7f1028b1461025657600080fd5b806367f02918146101be5780636c6eb9d1146101d157806389b89f5a146101e4578063958ba0bf146101f757600080fd5b806312ef6b97116100de57806312ef6b971461017257806331659b7e146101855780634bf967ff1461019857806353212637146101ab57600080fd5b8063027748371461011057806305184f9c146101395780630ce1dccd1461014c578063104e8a7c1461015f575b600080fd5b61012361011e366004611e4a565b610269565b6040516101309190611ed5565b60405180910390f35b610123610147366004611e4a565b610315565b61012361015a366004611e4a565b610325565b61012361016d366004611e4a565b610335565b610123610180366004611ef9565b610345565b610123610193366004611e4a565b61035a565b6101236101a6366004611e4a565b61036a565b6101236101b9366004611e4a565b61037a565b6101236101cc366004611ef9565b61038a565b6101236101df366004611e4a565b610396565b6101236101f2366004611e4a565b6103a6565b610123610205366004611e4a565b6103b1565b610123610218366004611e4a565b6103c1565b61012361022b366004611e4a565b6103d1565b61012361023e366004611e4a565b6103e1565b610123610251366004611e4a565b6103ec565b610123610264366004611e4a565b6103fc565b600c818154811061027957600080fd5b90600052602060002001600091509050805461029490611f4c565b80601f01602080910402602001604051908101604052809291908181526020018280546102c090611f4c565b801561030d5780601f106102e25761010080835404028352916020019161030d565b820191906000526020600020905b8154815290600101906020018083116102f057829003601f168201915b505050505081565b6001818154811061027957600080fd5b6002818154811061027957600080fd5b6007818154811061027957600080fd5b6060610351838361040c565b90505b92915050565b6004818154811061027957600080fd5b6006818154811061027957600080fd5b6008818154811061027957600080fd5b60606103518383610bee565b6003818154811061027957600080fd5b606061035482610f6f565b6000818154811061027957600080fd5b600b818154811061027957600080fd5b6009818154811061027957600080fd5b606061035482611112565b600a818154811061027957600080fd5b6005818154811061027957600080fd5b60606000610419846112e5565b90506000600b82602001518154811061043457610434611f79565b90600052602060002001805461044990611f4c565b80601f016020809104026020016040519081016040528092919081815260200182805461047590611f4c565b80156104c25780601f10610497576101008083540402835291602001916104c2565b820191906000526020600020905b8154815290600101906020018083116104a557829003601f168201915b505050505090506000600c8360200151815481106104e2576104e2611f79565b9060005260206000200180546104f790611f4c565b80601f016020809104026020016040519081016040528092919081815260200182805461052390611f4c565b80156105705780601f1061054557610100808354040283529160200191610570565b820191906000526020600020905b81548152906001019060200180831161055357829003601f168201915b505050505090506000600a84600001518154811061059057610590611f79565b9060005260206000200161072060038660400151815481106105b4576105b4611f79565b9060005260206000200180546105c990611f4c565b80601f01602080910402602001604051908101604052809291908181526020018280546105f590611f4c565b80156106425780601f1061061757610100808354040283529160200191610642565b820191906000526020600020905b81548152906001019060200180831161062557829003601f168201915b50505050506000805480602002602001604051908101604052809291908181526020016000905b8282101561071557838290600052602060002001805461068890611f4c565b80601f01602080910402602001604051908101604052809291908181526020018280546106b490611f4c565b80156107015780601f106106d657610100808354040283529160200191610701565b820191906000526020600020905b8154815290600101906020018083116106e457829003601f168201915b505050505081526020019060010190610669565b5050505086866113e2565b6108a6600787606001518154811061073a5761073a611f79565b90600052602060002001805461074f90611f4c565b80601f016020809104026020016040519081016040528092919081815260200182805461077b90611f4c565b80156107c85780601f1061079d576101008083540402835291602001916107c8565b820191906000526020600020905b8154815290600101906020018083116107ab57829003601f168201915b50505050506000805480602002602001604051908101604052809291908181526020016000905b8282101561089b57838290600052602060002001805461080e90611f4c565b80601f016020809104026020016040519081016040528092919081815260200182805461083a90611f4c565b80156108875780601f1061085c57610100808354040283529160200191610887565b820191906000526020600020905b81548152906001019060200180831161086a57829003601f168201915b5050505050815260200190600101906107ef565b5050505087876113e2565b610a2a60018860800151815481106108c0576108c0611f79565b9060005260206000200180546108d590611f4c565b80601f016020809104026020016040519081016040528092919081815260200182805461090190611f4c565b801561094e5780601f106109235761010080835404028352916020019161094e565b820191906000526020600020905b81548152906001019060200180831161093157829003601f168201915b50505050506000805480602002602001604051908101604052809291908181526020016000905b82821015610a2157838290600052602060002001805461099490611f4c565b80601f01602080910402602001604051908101604052809291908181526020018280546109c090611f4c565b8015610a0d5780601f106109e257610100808354040283529160200191610a0d565b820191906000526020600020905b8154815290600101906020018083116109f057829003601f168201915b505050505081526020019060010190610975565b50505050611986565b89610a445760405180602001604052806000815250610bbf565b610bbf60058960a0015181548110610a5e57610a5e611f79565b906000526020600020018054610a7390611f4c565b80601f0160208091040260200160405190810160405280929190818152602001828054610a9f90611f4c565b8015610aec5780601f10610ac157610100808354040283529160200191610aec565b820191906000526020600020905b815481529060010190602001808311610acf57829003601f168201915b50505050506000805480602002602001604051908101604052809291908181526020016000905b82821015610a21578382906000526020600020018054610b3290611f4c565b80601f0160208091040260200160405190810160405280929190818152602001828054610b5e90611f4c565b8015610bab5780601f10610b8057610100808354040283529160200191610bab565b820191906000526020600020905b815481529060010190602001808311610b8e57829003601f168201915b505050505081526020019060010190610b13565b604051602001610bd39594939291906120f3565b60408051808303601f19018152919052979650505050505050565b60606000610bfb846112e5565b604080516102608101825260016102208201818152600360fc1b610240840152825282518084018452818152603160f81b6020828101919091528084019190915283518085018552828152601960f91b818301528385015283518085018552828152603360f81b81830152606084015283518085018552828152600d60fa1b81830152608084015283518085018552828152603560f81b8183015260a084015283518085018552828152601b60f91b8183015260c084015283518085018552828152603760f81b8183015260e084015283518085018552828152600760fb1b8183015261010084015283518085018552828152603960f81b8183015261012084015283518085018552600280825261031360f41b828401526101408501919091528451808601865281815261313160f01b818401526101608501528451808601865281815261189960f11b818401526101808501528451808601865281815261313360f01b818401526101a085015284518086018652818152610c4d60f21b818401526101c08501528451808601865281815261313560f01b818401526101e08501528451808601909552845261189b60f11b908401526102008201929092528251929350916000918391610dcf91612179565b60118110610ddf57610ddf611f79565b60200201518284602001516001610df69190612179565b60118110610e0657610e06611f79565b60200201516004856040015181548110610e2257610e22611f79565b906000526020600020016008866060015181548110610e4357610e43611f79565b906000526020600020016002876080015181548110610e6457610e64611f79565b9060005260206000200189610f225760068860a0015181548110610e8a57610e8a611f79565b906000526020600020018054610e9f90611f4c565b80601f0160208091040260200160405190810160405280929190818152602001828054610ecb90611f4c565b8015610f185780601f10610eed57610100808354040283529160200191610f18565b820191906000526020600020905b815481529060010190602001808311610efb57829003601f168201915b5050505050610f40565b604051806040016040528060048152602001634e6f6e6560e01b8152505b604051602001610f5596959493929190612216565b60408051808303601f190181529190529695505050505050565b606060006110eb6009600181548110610f8a57610f8a611f79565b906000526020600020018054610f9f90611f4c565b80601f0160208091040260200160405190810160405280929190818152602001828054610fcb90611f4c565b80156110185780601f10610fed57610100808354040283529160200191611018565b820191906000526020600020905b815481529060010190602001808311610ffb57829003601f168201915b50505050506000805480602002602001604051908101604052809291908181526020016000905b82821015610a2157838290600052602060002001805461105e90611f4c565b80601f016020809104026020016040519081016040528092919081815260200182805461108a90611f4c565b80156110d75780601f106110ac576101008083540402835291602001916110d7565b820191906000526020600020905b8154815290600101906020018083116110ba57829003601f168201915b50505050508152602001906001019061103f565b6040516020016110fb9190612368565b60408051601f198184030181529190529392505050565b6060600061111f836112e5565b90506000600a82600001518154811061113a5761113a611f79565b906000526020600020016112bc600960008154811061115b5761115b611f79565b90600052602060002001805461117090611f4c565b80601f016020809104026020016040519081016040528092919081815260200182805461119c90611f4c565b80156111e95780601f106111be576101008083540402835291602001916111e9565b820191906000526020600020905b8154815290600101906020018083116111cc57829003601f168201915b50505050506000805480602002602001604051908101604052809291908181526020016000905b82821015610a2157838290600052602060002001805461122f90611f4c565b80601f016020809104026020016040519081016040528092919081815260200182805461125b90611f4c565b80156112a85780601f1061127d576101008083540402835291602001916112a8565b820191906000526020600020905b81548152906001019060200180831161128b57829003601f168201915b505050505081526020019060010190611210565b6040516020016112cd929190612454565b60408051601f19818403018152919052949350505050565b61131e6040518060c001604052806000815260200160008152602001600081526020016000815260200160008152602001600081525090565b6040805160c08101909152600a54819061133890856124af565b8152600b5460209091019061134e6002866124c3565b61135891906124af565b815260200160038054905060038561137091906124c3565b61137a91906124af565b81526007546020909101906113906004866124c3565b61139a91906124af565b81526001546020909101906113b06005866124c3565b6113ba91906124af565b81526005546020909101906113d06006866124c3565b6113da91906124af565b905292915050565b604080516104608101825260016104208201818152600360fc1b610440840152825282518084018452818152603160f81b6020828101919091528084019190915283518085018552828152601960f91b818301528385015283518085018552828152603360f81b8183015260608481019190915284518086018652838152600d60fa1b81840152608085015284518086018652838152603560f81b8184015260a085015284518086018652838152601b60f91b8184015260c085015284518086018652838152603760f81b8184015260e085015284518086018652838152600760fb1b8184015261010085015284518086018652928352603960f81b8383015261012084019290925283518085018552600280825261031360f41b828401526101408501919091528451808601865281815261313160f01b818401526101608501528451808601865281815261189960f11b818401526101808501528451808601865281815261313360f01b818401526101a085015284518086018652818152610c4d60f21b818401526101c08501528451808601865281815261313560f01b818401526101e08501528451808601865281815261189b60f11b818401526102008501528451808601865281815261313760f01b818401526102208501528451808601865281815261062760f31b818401526102408501528451808601865281815261313960f01b818401526102608501528451808601865281815261032360f41b818401526102808501528451808601865281815261323160f01b818401526102a08501528451808601865281815261191960f11b818401526102c08501528451808601865281815261323360f01b818401526102e085015284518086018652818152610c8d60f21b818401526103008501528451808601865281815261323560f01b818401526103208501528451808601865281815261191b60f11b818401526103408501528451808601865281815261323760f01b818401526103608501528451808601865281815261064760f31b818401526103808501528451808601865281815261323960f01b818401526103a08501528451808601865281815261033360f41b818401526103c08501528451808601865281815261333160f01b818401526103e08501528451808601909552845261199960f11b90840152610400820192909252816000805b885181101561197957600089828151811061176b5761176b611f79565b016020015160f81c905060008a611783846001612179565b8151811061179357611793611f79565b0160209081015160f81c91506000906117ac90866124af565b905060006117bb6020876124c3565b905060ff83166117ca57611952565b8260ff16600314156118505786888560ff16602181106117ec576117ec611f79565b6020020151898460ff166021811061180657611806611f79565b60200201518a8460ff166021811061182057611820611f79565b60200201518e60405160200161183a9594939291906124d7565b6040516020818303038152906040529650611952565b8260ff16600414156118c05786888560ff166021811061187257611872611f79565b6020020151898460ff166021811061188c5761188c611f79565b60200201518a8460ff16602181106118a6576118a6611f79565b60200201518d60405160200161183a9594939291906124d7565b86888560ff16602181106118d6576118d6611f79565b6020020151898460ff16602181106118f0576118f0611f79565b60200201518a8460ff166021811061190a5761190a611f79565b60200201518f8760ff168151811061192457611924611f79565b60200260200101516040516020016119409594939291906124d7565b60405160208183030381529060405296505b61195f60ff851687612179565b9550505050508060026119729190612179565b905061174e565b5090979650505050505050565b604080516104608101825260016104208201818152600360fc1b610440840152825282518084018452818152603160f81b6020828101919091528084019190915283518085018552828152601960f91b818301528385015283518085018552828152603360f81b8183015260608481019190915284518086018652838152600d60fa1b81840152608085015284518086018652838152603560f81b8184015260a085015284518086018652838152601b60f91b8184015260c085015284518086018652838152603760f81b8184015260e085015284518086018652838152600760fb1b8184015261010085015284518086018652928352603960f81b8383015261012084019290925283518085018552600280825261031360f41b828401526101408501919091528451808601865281815261313160f01b818401526101608501528451808601865281815261189960f11b818401526101808501528451808601865281815261313360f01b818401526101a085015284518086018652818152610c4d60f21b818401526101c08501528451808601865281815261313560f01b818401526101e08501528451808601865281815261189b60f11b818401526102008501528451808601865281815261313760f01b818401526102208501528451808601865281815261062760f31b818401526102408501528451808601865281815261313960f01b818401526102608501528451808601865281815261032360f41b818401526102808501528451808601865281815261323160f01b818401526102a08501528451808601865281815261191960f11b818401526102c08501528451808601865281815261323360f01b818401526102e085015284518086018652818152610c8d60f21b818401526103008501528451808601865281815261323560f01b818401526103208501528451808601865281815261191b60f11b818401526103408501528451808601865281815261323760f01b818401526103608501528451808601865281815261064760f31b818401526103808501528451808601865281815261323960f01b818401526103a08501528451808601865281815261033360f41b818401526103c08501528451808601865281815261333160f01b818401526103e08501528451808601909552845261199960f11b90840152610400820192909252816000805b8651811015611e24576000878281518110611d0f57611d0f611f79565b016020015160f81c9050600088611d27846001612179565b81518110611d3757611d37611f79565b016020015160f81c90508015611dff576000611d546020866124af565b90506000611d636020876124c3565b905060008a8460ff1681518110611d7c57611d7c611f79565b6020026020010151905087898660ff1660218110611d9c57611d9c611f79565b60200201518a8560ff1660218110611db657611db6611f79565b60200201518b8560ff1660218110611dd057611dd0611f79565b602002015184604051602001611dea9594939291906124d7565b60405160208183030381529060405297505050505b611e0c60ff831685612179565b93505050806002611e1d9190612179565b9050611cf2565b509095945050505050565b805b8114611e3c57600080fd5b50565b803561035481611e2f565b600060208284031215611e5f57611e5f600080fd5b6000611e6b8484611e3f565b949350505050565b60005b83811015611e8e578181015183820152602001611e76565b83811115611e9d576000848401525b50505050565b6000611ead825190565b808452602084019350611ec4818560208601611e73565b601f01601f19169290920192915050565b602080825281016103518184611ea3565b801515611e31565b803561035481611ee6565b60008060408385031215611f0f57611f0f600080fd5b6000611f1b8585611e3f565b9250506020611f2c85828601611eee565b9150509250929050565b634e487b7160e01b600052602260045260246000fd5b600281046001821680611f6057607f821691505b60208210811415611f7357611f73611f36565b50919050565b634e487b7160e01b600052603260045260246000fd5b7f3c73766720786d6c6e733d22687474703a2f2f7777772e77332e6f72672f323081527f30302f737667222076696577426f783d2230203020333220333222207368617060208201527f652d72656e646572696e673d2263726973704564676573222077696474683d2260408201527f35313222206865696768743d22353132223e3c726563742077696474683d223160608201527f30302522206865696768743d2231303025222066696c6c3d22230000000000006080820152609a0190565b6000815461205d81611f4c565b6001821680156120745760018114612085576120b5565b60ff198316865281860193506120b5565b60008581526020902060005b838110156120ad57815488820152600190910190602001612091565b838801955050505b50505092915050565b6211179f60e91b815260005b5060030190565b60006120db825190565b6120e9818560208601611e73565b9290920192915050565b60006120fe82611f8f565b915061210a8288612050565b9150612115826120be565b915061212182876120d1565b915061212d82866120d1565b915061213982856120d1565b915061214582846120d1565b651e17b9bb339f60d11b81529150600682015b979650505050505050565b634e487b7160e01b600052601160045260246000fd5b6000821982111561218c5761218c612163565b500190565b62089f4b60ea1b815260006120ca565b7f7b2274726169745f74797065223a224163636573736f72696573222c20227661815265363ab2911d1160d11b602082015260005b5060260190565b7f227d2c7b2274726169745f74797065223a22506c6174666f726d222c20227661815265363ab2911d1160d11b602082015260006121d6565b7f7b2274726169745f74797065223a224261636b67726f756e64222c202276616c8152643ab2911d1160d91b6020820152602501600061225682896120d1565b915061226182612191565b7f7b2274726169745f74797065223a2250616c65747465222c202276616c7565228152611d1160f11b6020820152602201915061229e82886120d1565b91506122a982612191565b7f7b2274726169745f74797065223a22426f6479222c202276616c7565223a22008152601f0191506122db8287612050565b91506122e682612191565b7f7b2274726169745f74797065223a225761727473222c202276616c7565223a22815260200191506123188286612050565b915061232382612191565b915061232e826121a1565b915061233a8285612050565b9150612345826121dd565b915061235182846120d1565b915061235c82612191565b98975050505050505050565b7f3c73766720786d6c6e733d22687474703a2f2f7777772e77332e6f72672f323081527f30302f737667222076696577426f783d2230203020333220333222207368617060208201527f652d72656e646572696e673d2263726973704564676573222077696474683d2260408201527f35313222206865696768743d22353132223e3c726563742077696474683d223160608201527f30302522206865696768743d2231303025222066696c6c3d222330303030303060808201526211179f60e91b60a082015260a301600061243e82846120d1565b651e17b9bb339f60d11b81526006019392505050565b600061245f82611f8f565b915061246b8285612050565b9150612476826120be565b915061248282846120d1565b651e17b9bb339f60d11b8152915060068201611e6b565b634e487b7160e01b600052601260045260246000fd5b6000826124be576124be612499565b500690565b6000826124d2576124d2612499565b500490565b60006124e382886120d1565b6c1e3932b1ba103bb4b23a341e9160991b8152600d01915061250582876120d1565b6f11103432b4b3b43a1e911891103c1e9160811b8152601001915061252a82866120d1565b6411103c9e9160d91b8152600501915061254482856120d1565b68222066696c6c3d222360b81b8152600901915061256282846120d1565b9150612158826120be56fea26469706673582212201879dfc18f47f6c64fad5a6e71aa5c07e660d21760e028d6b742edd46b42d48d64736f6c63430008090033ff006f0003010100020119000101030b0101020b010118000201020b0101020b010117000201030b0104010b0101010b0101150001010104010108040101130001010504070112000101050403010303010113000101020401010204030303011400020102040101030401010204020112000f01ff006f00030101000201190001010304010102040101180001010204010b0101010b0104010117000201010b0101010b0104010b0101010b0101150001010104010108040101130001010404080112000101050401010503010113000101020401010204030303011400020102040101030401010204020112000f018e0006011a000101040c01011a000101040c01011a000101040c01011a000101040c010117000301060d0301140001010a0c010115000a01ff006f000301010002011900010103040101020401011800010103040101010b020117000201010b0101010b0404010115000101010401010804010113000101030402010204050112000101060402010303010113000101020401010204030303011400020102040101030401010204020112000f01ff006f0003010100020119000101030401010204010118000101010b0101010b0101010b0201170002010704010115000101010401010804010113000101080404011200010106040503010113000101020401010204030303011400020102040101030401010204020112000f01b00002011d000101020501011b000101040f01011a0001010405010117000c01140001010105010901050109010501090105010901050109010115000a01ff006f0002010300020118000101020403010204010117000101010b020401010204010b010116000201010b0101010b0104010b0101010b0101150001010104010108040101130001010504070112000101050401010503010113000101020401010204030303011400020102040101030401010204020112000f01ab0002011e00010101100101010004011800010102100101040501011700020101100105040101050301130001010205010101050101020b0101010501010205010113000101020506100105020115000a01ff006f0003010100020119000101030401010204010118000101030401010204010117000201010b0101010b0104010b0101010b01011500010101040101080401011300010105040101010b0101010b030112000101050401010503010113000101020401010204030303011400020102040101030401010204020112000f01500002011d000101010e01011d000101010e010501011c000101020e01011b0001010105030e01011a000101030e010501011a000101040e010117000c0114000101010e0105030e0105020e0105010e010115000a01500004011b000101040801011900010106080101180001010108010102080101010801011800010101080101020801010108010119000101040801011a00010101080201010801011b00010102000101cf0004011b000101040b01011900080117000101080b010117000101060b010118000801d000040b1a00020b0400020b1700010b0400010b0300010b1500010b0200020b0600010b1400010b0200020b0600010b1300010b0c00010b1200010b0c00010b1200010b0c00010b1200010b0c00010b1300010b0a00010b1400010b0a00010b1500010b0800010b1700020b0400020b1a00040bff00ff00a90011010e00010102040e0c010401010d00010101040e0c020401010d0013010c00010101040f0c030401010b001501b20002011d000101020501011b000201020502011800020101050101010b01100101010502011400030102050101021001010205010114000101021301010605010115000a01ff00ff00a90011010e000101010302040203010c02040203010c02040103010c0104010301010d0001010104010c0203010c0104040c02040103020c0104010301010d0013010c000101010301040103020c01040103010c02040103020c02040103010c0104010301010b001501ff006f0003010100020119000101030401010204010118000101030401010204010117000201010b0101010b0104010b0101010b01011500010101040101080401011300010105040701120001010604010301010310010113000101020401010204030303011400020102040101030401010204020112000f01ff00ff00a90011010e0001010208070403030404010801010d0001010108070403030404020801010d0013010c0001010108060403030604030801010b001501ec000108010001081e00010105000108010001081e00010142000108010001081e000101510001141f0001141b000114020001141c000114020001141d00011402000114170001140400011403000114160001140300011404000114170001140300011402000114190001141f0001141e0001141f000114ff006f0003010100020119000101030401010204010118000101010b020401010204010117000201010b0101010b0104010b0101010b0101150001010104010108040101130001010504070112000101060401010403010113000101020401010204030303011400020102040101030401010204020112000f01ce00020102000201190001010213020102130101180001010613010117000201061302011500010101130101060b010101130101140001010a13010115000a01ff006f0003010100020119000101030b0101020b010118000101010b0101010b0101010b020117000201030b0104030b0101150001010104010108040101130001010504070112000101050401010503010113000101020401010204030303011400020102040101030401010204020112000f01700002011d000101020b01011d0002011d0001010108011001011c000101021001011b0001010210020801011a0001010308011001011900010102080410010118000101010803100208010119000701ff006f000301010002011900010103040101020401011800010103040101020401011700050101040401150001010104010108040101130001010504070112000101050401010503010113000101020401010204030303011400020102040101030401010204020112000f01ff006f000601190001010204030b01040101180001010204010b0101010b01040101170002010204030b02040101150001010104010108040101130001010504070112000101050401010503010113000101020401010204030303011400020102040101030401010204020112000f01ce00060119000101060c010118000101060c010117000201060d0201150001010a0c010114000c01ff006f0003010100020119000101030401010204010118000101030b0101020b010117000201010b0101010b0104010b0101010b01011500010101040101080401011300010104040801120001010504010301010410010113000101020401010204020304011400020102040101030401010204020112000f01500003011c000101030801011a000101020802000108010119000101010803000108010119000201030802011a0005011b000101030501011c0003018d0001010600010117000101010b010104000101010b010115000101020b010104000101020b010114000101020b0601020b010114000101010b01010304020301040101010b0101150001010204010b0104020302040101160001010404020302040101160001010803010116000a01ff006f00030101000201190001010304010102040101180001010104010b010401010104010b0101170002010104010b0304010b01040101150001010104010108040101130001010504070112000101050401010503010113000101020401010204030303011400020102040101030401010204020112000f01ff006f000301010002011900010103080101020801011800010103080101020801011700020101080101030801010108010115000101010b010108080101130001010208010b010101080101010801010108030112000101010b0108030b0101010b0101010b0101010b010113000101020b0101010b0108030b03011400020102080101030801010208020112000f01ff006f0003010100020119000101030401010204010118000101030401010204010117000201010b0101010b0104010b0101010b01011500010101040101030b0104030b01040101130001010504070112000101050401010503010113000101020401010204030303011400020102040101030401010204020112000f01ff00ff00a90011010e0001010208040501010108030301010405010801010d0001010108050501010303010801010305020801010d0013010c00010101080f05030801010b001501ff006f0003010100020119000101030401010204010118000101030401010204010117000201010b0101010b0104010b0101010b01011500010101040101080401011300010103040101030b02010204010112000101050403010303010113000101020401010204030303011400020102040101030401010204020112000f016f000201010002011a0001010210010102100101180001010110010b05100101170001010710010118000101051001011a000101031001011c000101011001011e000101ff006f0003010100020119000101030401010204010118000101030401010204010117000201010b0101010b0104010b0101010b01011500010101040201071001011300010103040101011007011200010104040101061001011300010102040101020406011400020102040101030401010204020112000f01ff000c000201080002011300010101060101080001010106010112000101010501010800010101050101120001010206010106000101020601011200010101050101080001010105010113000201080002018d0008011800010106120101180001010612010119000101021203011a000101011201010305010116000401010b010101050101010503011400010104120101030501010112010115000a01ff006f0003010100030118000101010b0101010b0101010b0101010b010117000101010b0101010b0101010b0101010b010116000201010b0101010b0104010b0101010b0101150001010104010108040101130001010504070112000101050401010503010113000101020401010204030303011400020102040101030401010204020112000f01ff00ac0001011e00010101031c0002011d00010102031d0001010103020001031c000101ae00030101000201190001010308010102080101170001010408010102080101170001010208010a01010108010a0101180001010208010a01010108010a0101180001010208010a01010108010a01011800010101080200010101080101190001011f000101ff00ff00a90011010e00010102130e16011301010d00010101130e16021301010d0013010c00010101130f16031301010b001501eb0003011d000101020b010118000501030b010117000101030b0101010b0101020b010116000101040b0101010b19000101020b0101020b1b000101020b0101010b1c000101020b1e000101ee0006011900010106040101180008011700010108040101160001010804010116000a01ff006f0003010100020119000101030b0101020b010118000101030b0101020b010117000201010b0101010b0104010b0101010b010115000101010401010804010113000101040402010504010112000101050401010503010113000101020401010204030303011400020102040101030401010204020112000f014c00080118000801140004010819040110000401081904010e000201021904080a1902010c000201021904080a1902010a000201021908080a19020108000201021908080a19020108000201021908080a19020108000201021908080a190201060002010619040802190601061902010400020106190408021906010619020104000201021904080419020102190601041902010400020102190408041902010219060104190201040002010219040804190a0104190201040002010219040804190a0104190201040002010a190a0104190201040002010a190a0104190201060002010a19060104190201080002010a19060104190201080002011419020108000201141902010a000201101902010c000201101902010e0004010819040110000401081904011400080118000801ad00060118000a01150003010108080113000e0112000e0112000e011200050103000101020003011300030108000101150002018d0006011900010106090101160002010209010105090101140001010208010903010309020114000101020802010609010115000c01150001010a08010115000a01ff006f00030101000201190001010304010102040101180001010104010b010401010104010b010117000201010401010304010101040101150001010104010108040101130001010404080112000101040402010503010113000101020401010204030303011400020102040101030401010204020112000f01ff006f0003010100020119000101030401010204010118000101010b0101010b0101010b020117000201070401011500010101040101010401010604010113000101050407011200010106040503010113000101020401010204030303011400020102040101030401010204020112000f01ff006f0003010100020119000101030401010204010118000101030401010204010117000201010b0101010b0104010b0101010b010115000101010401010804010113000101050402030201020301011200010105040603010113000101020401010204030303011400020102040101030401010204020112000f01700003011c0001010108020401011b000101030401011c000101010401011d000101010401011a00040101040401160001010904010115000b011a000108ff006f0003010100020119000101030401010204010115000601010802010108010115000101010003010108020101080301150001010104010108040101130001010504070112000101050401010503010113000101020401010204030303011400020102040101030401010204020112000f01cd0007011800010101040101050901011600010101040201050901011500010101040201060901011500010101040201060401011600010101000801ff00ff00a70015010a0001010217011801010417010102170118010104170101031701010900010101170118020104180101011801170118010104180201011801170101090001010118090101180901011801010900030107180301071803010a001501ff006f0003010100020116000b011500010102000201010b0301010b01011700050101040401150001010104010108040101130001010504070112000101050401010503010113000101020401010204030303011400020102040101030401010204020112000f01ff006f000301010002011900010103040101020401011800080117000201010b0101010b0104010b0101010b010115000101010401010804010113000101040408011200010105040603010113000101020401010204030303011400020102040101030401010204020112000f01500001011d0005011a000101050801011a0005011d0001011d0005011a000101011103090107010118000101021103090207010117000101021103090107050114000d01ff006f0003010100020119000101030401010204010118000101030401010204010117000201010b0101010b0104010b0101010b0101150001010104010108040101130001010504070112000101050401010503010113000101020401010204030303011400020102040101030401010204020112000f01ff006f0003010100020119000101030401010204010118000101030401010204010117000201010b0101010b0104010b0101010b01011500010101040101080406010e0001010504070101150208011001010d00010105040101050307010d000101020401010204030303011400020102040101030401010204020112000f01",
  "linkReferences": {},
  "deployedLinkReferences": {}
}