{
  "_format": "hh-sol-artifact-1",
  "contractName": "TinyFrog",
  "sourceName": "contracts/TinyFrog.sol",
  "abi": [
    {
      "inputs": [],
      "stateMutability": "nonpayable",
      "type": "constructor"
    },
    {
      "inputs": [],
      "name": "ApprovalCallerNotOwnerNorApproved",
      "type": "error"
    },
    {
      "inputs": [],
      "name": "ApprovalQueryForNonexistentToken",
      "type": "error"
    },
    {
      "inputs": [],
      "name": "BalanceQueryForZeroAddress",
      "type": "error"
    },
    {
      "inputs": [],
      "name": "MintERC2309QuantityExceedsLimit",
      "type": "error"
    },
    {
      "inputs": [],
      "name": "MintToZeroAddress",
      "type": "error"
    },
    {
      "inputs": [],
      "name": "MintZeroQuantity",
      "type": "error"
    },
    {
      "inputs": [],
      "name": "OwnerQueryForNonexistentToken",
      "type": "error"
    },
    {
      "inputs": [],
      "name": "OwnershipNotInitializedForExtraData",
      "type": "error"
    },
    {
      "inputs": [
        {
          "internalType": "uint256",
          "name": "tokenId",
          "type": "uint256"
        }
      ],
      "name": "TinyFrogIsSoulbound",
      "type": "error"
    },
    {
      "inputs": [],
      "name": "TransferCallerNotOwnerNorApproved",
      "type": "error"
    },
    {
      "inputs": [],
      "name": "TransferFromIncorrectOwner",
      "type": "error"
    },
    {
      "inputs": [],
      "name": "TransferToNonERC721ReceiverImplementer",
      "type": "error"
    },
    {
      "inputs": [],
      "name": "TransferToZeroAddress",
      "type": "error"
    },
    {
      "inputs": [],
      "name": "URIQueryForNonexistentToken",
      "type": "error"
    },
    {
      "anonymous": false,
      "inputs": [
        {
          "indexed": true,
          "internalType": "address",
          "name": "owner",
          "type": "address"
        },
        {
          "indexed": true,
          "internalType": "address",
          "name": "approved",
          "type": "address"
        },
        {
          "indexed": true,
          "internalType": "uint256",
          "name": "tokenId",
          "type": "uint256"
        }
      ],
      "name": "Approval",
      "type": "event"
    },
    {
      "anonymous": false,
      "inputs": [
        {
          "indexed": true,
          "internalType": "address",
          "name": "owner",
          "type": "address"
        },
        {
          "indexed": true,
          "internalType": "address",
          "name": "operator",
          "type": "address"
        },
        {
          "indexed": false,
          "internalType": "bool",
          "name": "approved",
          "type": "bool"
        }
      ],
      "name": "ApprovalForAll",
      "type": "event"
    },
    {
      "anonymous": false,
      "inputs": [
        {
          "indexed": false,
          "internalType": "uint256",
          "name": "_fromTokenId",
          "type": "uint256"
        },
        {
          "indexed": false,
          "internalType": "uint256",
          "name": "_toTokenId",
          "type": "uint256"
        }
      ],
      "name": "BatchMetadataUpdate",
      "type": "event"
    },
    {
      "anonymous": false,
      "inputs": [
        {
          "indexed": true,
          "internalType": "uint256",
          "name": "fromTokenId",
          "type": "uint256"
        },
        {
          "indexed": false,
          "internalType": "uint256",
          "name": "toTokenId",
          "type": "uint256"
        },
        {
          "indexed": true,
          "internalType": "address",
          "name": "from",
          "type": "address"
        },
        {
          "indexed": true,
          "internalType": "address",
          "name": "to",
          "type": "address"
        }
      ],
      "name": "ConsecutiveTransfer",
      "type": "event"
    },
    {
      "anonymous": false,
      "inputs": [
        {
          "indexed": true,
          "internalType": "address",
          "name": "unlocker",
          "type": "address"
        },
        {
          "indexed": true,
          "internalType": "uint256",
          "name": "id",
          "type": "uint256"
        }
      ],
      "name": "Lock",
      "type": "event"
    },
    {
      "anonymous": false,
      "inputs": [
        {
          "indexed": false,
          "internalType": "uint256",
          "name": "_tokenId",
          "type": "uint256"
        }
      ],
      "name": "MetadataUpdate",
      "type": "event"
    },
    {
      "anonymous": false,
      "inputs": [
        {
          "indexed": true,
          "internalType": "address",
          "name": "previousOwner",
          "type": "address"
        },
        {
          "indexed": true,
          "internalType": "address",
          "name": "newOwner",
          "type": "address"
        }
      ],
      "name": "OwnershipTransferred",
      "type": "event"
    },
    {
      "anonymous": false,
      "inputs": [
        {
          "indexed": true,
          "internalType": "uint256",
          "name": "tokenId",
          "type": "uint256"
        }
      ],
      "name": "TinyFrogBoiled",
      "type": "event"
    },
    {
      "anonymous": false,
      "inputs": [
        {
          "indexed": true,
          "internalType": "uint256",
          "name": "tokenId",
          "type": "uint256"
        }
      ],
      "name": "TinyFrogDied",
      "type": "event"
    },
    {
      "anonymous": false,
      "inputs": [
        {
          "indexed": true,
          "internalType": "uint256",
          "name": "tokenId",
          "type": "uint256"
        }
      ],
      "name": "TinyFrogMorphed",
      "type": "event"
    },
    {
      "anonymous": false,
      "inputs": [
        {
          "indexed": true,
          "internalType": "uint256",
          "name": "tokenId",
          "type": "uint256"
        }
      ],
      "name": "TinyFrogSoulbound",
      "type": "event"
    },
    {
      "anonymous": false,
      "inputs": [
        {
          "indexed": true,
          "internalType": "uint256",
          "name": "tokenId",
          "type": "uint256"
        },
        {
          "indexed": true,
          "internalType": "address",
          "name": "approvedContract",
          "type": "address"
        }
      ],
      "name": "TokenLocked",
      "type": "event"
    },
    {
      "anonymous": false,
      "inputs": [
        {
          "indexed": true,
          "internalType": "address",
          "name": "from",
          "type": "address"
        },
        {
          "indexed": true,
          "internalType": "address",
          "name": "to",
          "type": "address"
        },
        {
          "indexed": true,
          "internalType": "uint256",
          "name": "tokenId",
          "type": "uint256"
        }
      ],
      "name": "Transfer",
      "type": "event"
    },
    {
      "inputs": [],
      "name": "MAX_TOKEN_SUPPLY",
      "outputs": [
        {
          "internalType": "uint256",
          "name": "",
          "type": "uint256"
        }
      ],
      "stateMutability": "view",
      "type": "function"
    },
    {
      "inputs": [
        {
          "internalType": "uint256",
          "name": "",
          "type": "uint256"
        }
      ],
      "name": "accesories",
      "outputs": [
        {
          "internalType": "bytes",
          "name": "",
          "type": "bytes"
        }
      ],
      "stateMutability": "view",
      "type": "function"
    },
    {
      "inputs": [
        {
          "internalType": "uint256",
          "name": "",
          "type": "uint256"
        }
      ],
      "name": "accesories_traits",
      "outputs": [
        {
          "internalType": "string",
          "name": "",
          "type": "string"
        }
      ],
      "stateMutability": "view",
      "type": "function"
    },
    {
      "inputs": [
        {
          "internalType": "address",
          "name": "to",
          "type": "address"
        },
        {
          "internalType": "uint256",
          "name": "tokenId",
          "type": "uint256"
        }
      ],
      "name": "approve",
      "outputs": [],
      "stateMutability": "payable",
      "type": "function"
    },
    {
      "inputs": [
        {
          "internalType": "address",
          "name": "owner",
          "type": "address"
        }
      ],
      "name": "balanceOf",
      "outputs": [
        {
          "internalType": "uint256",
          "name": "",
          "type": "uint256"
        }
      ],
      "stateMutability": "view",
      "type": "function"
    },
    {
      "inputs": [
        {
          "internalType": "uint256",
          "name": "",
          "type": "uint256"
        }
      ],
      "name": "base",
      "outputs": [
        {
          "internalType": "bytes",
          "name": "",
          "type": "bytes"
        }
      ],
      "stateMutability": "view",
      "type": "function"
    },
    {
      "inputs": [
        {
          "internalType": "uint256",
          "name": "",
          "type": "uint256"
        }
      ],
      "name": "baseColorDark",
      "outputs": [
        {
          "internalType": "string",
          "name": "",
          "type": "string"
        }
      ],
      "stateMutability": "view",
      "type": "function"
    },
    {
      "inputs": [
        {
          "internalType": "uint256",
          "name": "",
          "type": "uint256"
        }
      ],
      "name": "baseColorLight",
      "outputs": [
        {
          "internalType": "string",
          "name": "",
          "type": "string"
        }
      ],
      "stateMutability": "view",
      "type": "function"
    },
    {
      "inputs": [
        {
          "internalType": "uint256",
          "name": "",
          "type": "uint256"
        }
      ],
      "name": "base_traits",
      "outputs": [
        {
          "internalType": "string",
          "name": "",
          "type": "string"
        }
      ],
      "stateMutability": "view",
      "type": "function"
    },
    {
      "inputs": [
        {
          "internalType": "uint256",
          "name": "",
          "type": "uint256"
        }
      ],
      "name": "bgPaletteColors",
      "outputs": [
        {
          "internalType": "string",
          "name": "",
          "type": "string"
        }
      ],
      "stateMutability": "view",
      "type": "function"
    },
    {
      "inputs": [],
      "name": "boilEnabled",
      "outputs": [
        {
          "internalType": "bool",
          "name": "",
          "type": "bool"
        }
      ],
      "stateMutability": "view",
      "type": "function"
    },
    {
      "inputs": [
        {
          "internalType": "uint256",
          "name": "tokenId",
          "type": "uint256"
        }
      ],
      "name": "boilFrog",
      "outputs": [],
      "stateMutability": "nonpayable",
      "type": "function"
    },
    {
      "inputs": [],
      "name": "contractRenderer",
      "outputs": [
        {
          "internalType": "contract ITinyFrogRenderer",
          "name": "",
          "type": "address"
        }
      ],
      "stateMutability": "view",
      "type": "function"
    },
    {
      "inputs": [
        {
          "internalType": "uint256",
          "name": "",
          "type": "uint256"
        }
      ],
      "name": "dead",
      "outputs": [
        {
          "internalType": "bool",
          "name": "",
          "type": "bool"
        }
      ],
      "stateMutability": "view",
      "type": "function"
    },
    {
      "inputs": [
        {
          "internalType": "uint256",
          "name": "",
          "type": "uint256"
        }
      ],
      "name": "fullPalettes",
      "outputs": [
        {
          "internalType": "string",
          "name": "",
          "type": "string"
        }
      ],
      "stateMutability": "view",
      "type": "function"
    },
    {
      "inputs": [
        {
          "internalType": "uint256",
          "name": "tokenId",
          "type": "uint256"
        }
      ],
      "name": "getApproved",
      "outputs": [
        {
          "internalType": "address",
          "name": "",
          "type": "address"
        }
      ],
      "stateMutability": "view",
      "type": "function"
    },
    {
      "inputs": [
        {
          "internalType": "uint256",
          "name": "seed",
          "type": "uint256"
        }
      ],
      "name": "getDeadSVG",
      "outputs": [
        {
          "internalType": "string",
          "name": "",
          "type": "string"
        }
      ],
      "stateMutability": "view",
      "type": "function"
    },
    {
      "inputs": [],
      "name": "getNumMinted",
      "outputs": [
        {
          "internalType": "uint256",
          "name": "",
          "type": "uint256"
        }
      ],
      "stateMutability": "view",
      "type": "function"
    },
    {
      "inputs": [
        {
          "internalType": "uint256",
          "name": "numToMint",
          "type": "uint256"
        }
      ],
      "name": "getPrice",
      "outputs": [
        {
          "internalType": "uint256",
          "name": "",
          "type": "uint256"
        }
      ],
      "stateMutability": "view",
      "type": "function"
    },
    {
      "inputs": [
        {
          "internalType": "uint256",
          "name": "seed",
          "type": "uint256"
        },
        {
          "internalType": "bool",
          "name": "showBasedPlatform",
          "type": "bool"
        }
      ],
      "name": "getSVG",
      "outputs": [
        {
          "internalType": "string",
          "name": "",
          "type": "string"
        }
      ],
      "stateMutability": "view",
      "type": "function"
    },
    {
      "inputs": [
        {
          "internalType": "uint256",
          "name": "seed",
          "type": "uint256"
        },
        {
          "internalType": "bool",
          "name": "showBasedPlatform",
          "type": "bool"
        }
      ],
      "name": "getTraitsMetadata",
      "outputs": [
        {
          "internalType": "string",
          "name": "",
          "type": "string"
        }
      ],
      "stateMutability": "view",
      "type": "function"
    },
    {
      "inputs": [
        {
          "internalType": "uint256",
          "name": "seed",
          "type": "uint256"
        }
      ],
      "name": "getUnrevealedSVG",
      "outputs": [
        {
          "internalType": "string",
          "name": "",
          "type": "string"
        }
      ],
      "stateMutability": "view",
      "type": "function"
    },
    {
      "inputs": [
        {
          "internalType": "address",
          "name": "owner",
          "type": "address"
        },
        {
          "internalType": "address",
          "name": "operator",
          "type": "address"
        }
      ],
      "name": "isApprovedForAll",
      "outputs": [
        {
          "internalType": "bool",
          "name": "",
          "type": "bool"
        }
      ],
      "stateMutability": "view",
      "type": "function"
    },
    {
      "inputs": [
        {
          "internalType": "uint256",
          "name": "tokenId",
          "type": "uint256"
        }
      ],
      "name": "isDead",
      "outputs": [
        {
          "internalType": "bool",
          "name": "",
          "type": "bool"
        }
      ],
      "stateMutability": "view",
      "type": "function"
    },
    {
      "inputs": [
        {
          "internalType": "uint256",
          "name": "tokenId",
          "type": "uint256"
        }
      ],
      "name": "isSoulbound",
      "outputs": [
        {
          "internalType": "bool",
          "name": "",
          "type": "bool"
        }
      ],
      "stateMutability": "view",
      "type": "function"
    },
    {
      "inputs": [],
      "name": "maxTokensOwnableInWallet",
      "outputs": [
        {
          "internalType": "uint256",
          "name": "",
          "type": "uint256"
        }
      ],
      "stateMutability": "view",
      "type": "function"
    },
    {
      "inputs": [
        {
          "internalType": "uint256",
          "name": "",
          "type": "uint256"
        }
      ],
      "name": "mintPricing",
      "outputs": [
        {
          "internalType": "uint256",
          "name": "",
          "type": "uint256"
        }
      ],
      "stateMutability": "view",
      "type": "function"
    },
    {
      "inputs": [],
      "name": "mintStatus",
      "outputs": [
        {
          "internalType": "enum TinyFrog.MintStatus",
          "name": "",
          "type": "uint8"
        }
      ],
      "stateMutability": "view",
      "type": "function"
    },
    {
      "inputs": [
        {
          "internalType": "uint256",
          "name": "",
          "type": "uint256"
        }
      ],
      "name": "mintSupplyLimits",
      "outputs": [
        {
          "internalType": "uint256",
          "name": "",
          "type": "uint256"
        }
      ],
      "stateMutability": "view",
      "type": "function"
    },
    {
      "inputs": [
        {
          "internalType": "uint256",
          "name": "",
          "type": "uint256"
        }
      ],
      "name": "misc",
      "outputs": [
        {
          "internalType": "bytes",
          "name": "",
          "type": "bytes"
        }
      ],
      "stateMutability": "view",
      "type": "function"
    },
    {
      "inputs": [],
      "name": "morphEnabled",
      "outputs": [
        {
          "internalType": "bool",
          "name": "",
          "type": "bool"
        }
      ],
      "stateMutability": "view",
      "type": "function"
    },
    {
      "inputs": [
        {
          "internalType": "uint256",
          "name": "tokenId",
          "type": "uint256"
        }
      ],
      "name": "morphFrog",
      "outputs": [],
      "stateMutability": "nonpayable",
      "type": "function"
    },
    {
      "inputs": [
        {
          "internalType": "uint256[]",
          "name": "tokenIds",
          "type": "uint256[]"
        }
      ],
      "name": "morphMany",
      "outputs": [],
      "stateMutability": "nonpayable",
      "type": "function"
    },
    {
      "inputs": [],
      "name": "name",
      "outputs": [
        {
          "internalType": "string",
          "name": "",
          "type": "string"
        }
      ],
      "stateMutability": "view",
      "type": "function"
    },
    {
      "inputs": [
        {
          "internalType": "address",
          "name": "addr",
          "type": "address"
        }
      ],
      "name": "numberMinted",
      "outputs": [
        {
          "internalType": "uint256",
          "name": "",
          "type": "uint256"
        }
      ],
      "stateMutability": "view",
      "type": "function"
    },
    {
      "inputs": [],
      "name": "owner",
      "outputs": [
        {
          "internalType": "address",
          "name": "",
          "type": "address"
        }
      ],
      "stateMutability": "view",
      "type": "function"
    },
    {
      "inputs": [
        {
          "internalType": "uint256",
          "name": "tokenId",
          "type": "uint256"
        }
      ],
      "name": "ownerOf",
      "outputs": [
        {
          "internalType": "address",
          "name": "",
          "type": "address"
        }
      ],
      "stateMutability": "view",
      "type": "function"
    },
    {
      "inputs": [
        {
          "internalType": "uint256",
          "name": "",
          "type": "uint256"
        }
      ],
      "name": "platform",
      "outputs": [
        {
          "internalType": "bytes",
          "name": "",
          "type": "bytes"
        }
      ],
      "stateMutability": "view",
      "type": "function"
    },
    {
      "inputs": [
        {
          "internalType": "uint256",
          "name": "",
          "type": "uint256"
        }
      ],
      "name": "platform_traits",
      "outputs": [
        {
          "internalType": "string",
          "name": "",
          "type": "string"
        }
      ],
      "stateMutability": "view",
      "type": "function"
    },
    {
      "inputs": [
        {
          "internalType": "uint256",
          "name": "numToMint",
          "type": "uint256"
        }
      ],
      "name": "publicMintFrog",
      "outputs": [],
      "stateMutability": "payable",
      "type": "function"
    },
    {
      "inputs": [],
      "name": "renounceOwnership",
      "outputs": [],
      "stateMutability": "nonpayable",
      "type": "function"
    },
    {
      "inputs": [
        {
          "internalType": "address",
          "name": "to",
          "type": "address"
        },
        {
          "internalType": "uint256",
          "name": "numToMint",
          "type": "uint256"
        }
      ],
      "name": "reserveFrog",
      "outputs": [],
      "stateMutability": "nonpayable",
      "type": "function"
    },
    {
      "inputs": [
        {
          "internalType": "address[]",
          "name": "recipients",
          "type": "address[]"
        },
        {
          "internalType": "uint256",
          "name": "numToMint",
          "type": "uint256"
        }
      ],
      "name": "reserveFrogMany",
      "outputs": [],
      "stateMutability": "nonpayable",
      "type": "function"
    },
    {
      "inputs": [],
      "name": "revealed",
      "outputs": [
        {
          "internalType": "bool",
          "name": "",
          "type": "bool"
        }
      ],
      "stateMutability": "view",
      "type": "function"
    },
    {
      "inputs": [
        {
          "internalType": "address",
          "name": "from",
          "type": "address"
        },
        {
          "internalType": "address",
          "name": "to",
          "type": "address"
        },
        {
          "internalType": "uint256",
          "name": "tokenId",
          "type": "uint256"
        }
      ],
      "name": "safeTransferFrom",
      "outputs": [],
      "stateMutability": "payable",
      "type": "function"
    },
    {
      "inputs": [
        {
          "internalType": "address",
          "name": "from",
          "type": "address"
        },
        {
          "internalType": "address",
          "name": "to",
          "type": "address"
        },
        {
          "internalType": "uint256",
          "name": "tokenId",
          "type": "uint256"
        },
        {
          "internalType": "bytes",
          "name": "_data",
          "type": "bytes"
        }
      ],
      "name": "safeTransferFrom",
      "outputs": [],
      "stateMutability": "payable",
      "type": "function"
    },
    {
      "inputs": [
        {
          "internalType": "uint256",
          "name": "",
          "type": "uint256"
        }
      ],
      "name": "seeds",
      "outputs": [
        {
          "internalType": "uint256",
          "name": "",
          "type": "uint256"
        }
      ],
      "stateMutability": "view",
      "type": "function"
    },
    {
      "inputs": [
        {
          "internalType": "address",
          "name": "operator",
          "type": "address"
        },
        {
          "internalType": "bool",
          "name": "approved",
          "type": "bool"
        }
      ],
      "name": "setApprovalForAll",
      "outputs": [],
      "stateMutability": "nonpayable",
      "type": "function"
    },
    {
      "inputs": [
        {
          "internalType": "bool",
          "name": "_enabled",
          "type": "bool"
        }
      ],
      "name": "setBoilEnabled",
      "outputs": [],
      "stateMutability": "nonpayable",
      "type": "function"
    },
    {
      "inputs": [
        {
          "internalType": "address",
          "name": "newAddress",
          "type": "address"
        }
      ],
      "name": "setContractRenderer",
      "outputs": [],
      "stateMutability": "nonpayable",
      "type": "function"
    },
    {
      "inputs": [
        {
          "internalType": "bool",
          "name": "_revealed",
          "type": "bool"
        }
      ],
      "name": "setEnableReveal",
      "outputs": [],
      "stateMutability": "nonpayable",
      "type": "function"
    },
    {
      "inputs": [
        {
          "internalType": "uint256",
          "name": "_maxTokenSupply",
          "type": "uint256"
        }
      ],
      "name": "setMaxTokenSupply",
      "outputs": [],
      "stateMutability": "nonpayable",
      "type": "function"
    },
    {
      "inputs": [
        {
          "internalType": "uint256",
          "name": "_status",
          "type": "uint256"
        }
      ],
      "name": "setMintStatus",
      "outputs": [],
      "stateMutability": "nonpayable",
      "type": "function"
    },
    {
      "inputs": [
        {
          "internalType": "bool",
          "name": "_enabled",
          "type": "bool"
        }
      ],
      "name": "setMorphEnabled",
      "outputs": [],
      "stateMutability": "nonpayable",
      "type": "function"
    },
    {
      "inputs": [
        {
          "internalType": "uint256[]",
          "name": "supply",
          "type": "uint256[]"
        },
        {
          "internalType": "uint256[]",
          "name": "pricing",
          "type": "uint256[]"
        }
      ],
      "name": "setPricing",
      "outputs": [],
      "stateMutability": "nonpayable",
      "type": "function"
    },
    {
      "inputs": [
        {
          "internalType": "bool",
          "name": "_enabled",
          "type": "bool"
        }
      ],
      "name": "setSoulbindEnabled",
      "outputs": [],
      "stateMutability": "nonpayable",
      "type": "function"
    },
    {
      "inputs": [
        {
          "internalType": "uint256",
          "name": "maxTokens",
          "type": "uint256"
        }
      ],
      "name": "setTokenMaxPerWallet",
      "outputs": [],
      "stateMutability": "nonpayable",
      "type": "function"
    },
    {
      "inputs": [],
      "name": "soulbindEnabled",
      "outputs": [
        {
          "internalType": "bool",
          "name": "",
          "type": "bool"
        }
      ],
      "stateMutability": "view",
      "type": "function"
    },
    {
      "inputs": [
        {
          "internalType": "uint256",
          "name": "tokenId",
          "type": "uint256"
        }
      ],
      "name": "soulbindFrog",
      "outputs": [],
      "stateMutability": "nonpayable",
      "type": "function"
    },
    {
      "inputs": [
        {
          "internalType": "uint256[]",
          "name": "tokenIds",
          "type": "uint256[]"
        }
      ],
      "name": "soulbindMany",
      "outputs": [],
      "stateMutability": "nonpayable",
      "type": "function"
    },
    {
      "inputs": [
        {
          "internalType": "uint256",
          "name": "",
          "type": "uint256"
        }
      ],
      "name": "soulbound",
      "outputs": [
        {
          "internalType": "bool",
          "name": "",
          "type": "bool"
        }
      ],
      "stateMutability": "view",
      "type": "function"
    },
    {
      "inputs": [
        {
          "internalType": "bytes4",
          "name": "interfaceId",
          "type": "bytes4"
        }
      ],
      "name": "supportsInterface",
      "outputs": [
        {
          "internalType": "bool",
          "name": "",
          "type": "bool"
        }
      ],
      "stateMutability": "view",
      "type": "function"
    },
    {
      "inputs": [],
      "name": "symbol",
      "outputs": [
        {
          "internalType": "string",
          "name": "",
          "type": "string"
        }
      ],
      "stateMutability": "view",
      "type": "function"
    },
    {
      "inputs": [
        {
          "internalType": "uint256",
          "name": "tokenId",
          "type": "uint256"
        }
      ],
      "name": "tokenURI",
      "outputs": [
        {
          "internalType": "string",
          "name": "",
          "type": "string"
        }
      ],
      "stateMutability": "view",
      "type": "function"
    },
    {
      "inputs": [
        {
          "internalType": "address",
          "name": "owner",
          "type": "address"
        }
      ],
      "name": "tokensOfOwner",
      "outputs": [
        {
          "internalType": "uint256[]",
          "name": "",
          "type": "uint256[]"
        }
      ],
      "stateMutability": "view",
      "type": "function"
    },
    {
      "inputs": [],
      "name": "totalSupply",
      "outputs": [
        {
          "internalType": "uint256",
          "name": "",
          "type": "uint256"
        }
      ],
      "stateMutability": "view",
      "type": "function"
    },
    {
      "inputs": [
        {
          "internalType": "address",
          "name": "from",
          "type": "address"
        },
        {
          "internalType": "address",
          "name": "to",
          "type": "address"
        },
        {
          "internalType": "uint256",
          "name": "tokenId",
          "type": "uint256"
        }
      ],
      "name": "transferFrom",
      "outputs": [],
      "stateMutability": "payable",
      "type": "function"
    },
    {
      "inputs": [
        {
          "internalType": "address",
          "name": "newOwner",
          "type": "address"
        }
      ],
      "name": "transferOwnership",
      "outputs": [],
      "stateMutability": "nonpayable",
      "type": "function"
    },
    {
      "inputs": [
        {
          "internalType": "uint256",
          "name": "",
          "type": "uint256"
        }
      ],
      "name": "warts",
      "outputs": [
        {
          "internalType": "bytes",
          "name": "",
          "type": "bytes"
        }
      ],
      "stateMutability": "view",
      "type": "function"
    },
    {
      "inputs": [
        {
          "internalType": "uint256",
          "name": "",
          "type": "uint256"
        }
      ],
      "name": "warts_traits",
      "outputs": [
        {
          "internalType": "string",
          "name": "",
          "type": "string"
        }
      ],
      "stateMutability": "view",
      "type": "function"
    },
    {
      "inputs": [
        {
          "internalType": "address",
          "name": "to",
          "type": "address"
        }
      ],
      "name": "withdraw",
      "outputs": [],
      "stateMutability": "nonpayable",
      "type": "function"
    }
  ],
  "bytecode": "0x60066103c08181526533331818333360d11b6103e05260809081526104008281526503030303030360d41b6104205260a0526104408281526533333333333360d11b6104605260c0526104808281526562636263626360d01b6104a05260e0526104c08281526537633763376360d01b6104e052610100526105008281526506638623830360d41b61052052610120526105408281526506630643062360d41b61056052610140526105808281526536383434666360d01b6105a052610160526105c08281526566636663666360d01b6105e052610180526106008281526506638333830360d41b610620526101a052610640828152650cc70c470cc760d31b610660526101c05261068082815265331bb2b2b1b160d11b6106a0526101e0526106c0828152650606068606a760d31b6106e05261020052610700828152650ccc6ca60c2760d31b6107205261022052610740828152650e4d0c0c0e0d60d21b61076052610240526107808281526503030613830360d41b6107a052610260526107c0828152650ca6860606a760d31b6107e05261028052610800828152650cc70c8706e760d31b610820526102a052610840828152650d4e190e0d4d60d21b610860526102c0526108808281526506163376330360d41b6108a0526102e0526108c0828152650c870cc706e760d31b6108e05261030052610900828152651998d84c0d0d60d21b61092052610320526109408281526503530333030360d41b61096052610340526109808281526503030623830360d41b6109a052610360526109c08281526503030363830360d41b6109e05261038052610a40604052610a00918252650c470cc70c4760d31b610a20526103a0919091526200028890600090601a62001f75565b506040518061040001604052806040518060400160405280600281526020016001600160f81b031981525081526020016040518060400160405280601a81526020017fff000e00030103000301160001010300010101000101030001010000000000008152508152602001604051806080016040528060528152602001620092106052913981526020016040518060400160405280601081526020017fef0005051a000105050001051a0005050000000000000000000000000000000081525081526020016040518060600160405280603c815260200162008e56603c913981526020016040518060400160405280601881526020017fee0001010500010119000201030002011a00020101000201000000000000000081525081526020016040518060400160405280602081526020017fee0005011a000101050701011800010107070101170001010607050114000d0181525081526020016040518060400160405280602081526020017fef0005011a000101050701011800010107070101140005010607010113000d0181525081526020016040518060600160405280603c8152602001620098a0603c91398152602001604051806060016040528060348152602001620096106034913981526020016040518060a00160405280606681526020016200935a6066913981526020016040518060600160405280603e8152602001620097ee603e9139815260200160405180606001604052806024815260200162008ae26024913981526020016040518060800160405280604c8152602001620093f4604c913981526020016040518060a0016040528060748152602001620088cc60749139815260200160405180606001604052806028815260200162008db460289139815260200160405180608001604052806042815260200162009644604291398152602001604051806080016040528060568152602001620088026056913981526020016040518060600160405280603e815260200162008676603e9139815260200160405180608001604052806052815260200162008730605291398152602001604051806060016040528060248152602001620088a860249139815260200160405180608001604052806044815260200162009a166044913981526020016040518060600160405280603881526020016200855a6038913981526020016040518060a001604052806070815260200162008e92607091398152602001604051806080016040528060468152602001620089746046913981526020016040518060800160405280604c815260200162009262604c913981526020016040518060600160405280602481526020016200944060249139815260200160405180608001604052806050815260200162008c8860509139815260200160405180606001604052806040815260200162008bd4604091398152602001604051806080016040528060508152602001620088586050913981526020016040518060800160405280604481526020016200915260449139815260200160405180608001604052806054815260200162008b066054913990526200071290600190602062001fd9565b5060408051610440810182526007610400820181815266111959985d5b1d60ca1b6104208401528252825180840184526009808252684579652042726f777360b81b6020838101919091528085019290925284518086018652600580825264486f726e7360d81b82850152858701919091528551808701875260068082526548616c6c6f7760d01b82860152606087019190915286518088018852600a808252692634b3b43a10213ab63160b11b82870152608088019190915287518089018952600f81526e416e677279204579652042726f777360881b8187015260a088015287518089018952600c81526b04261736562616c6c204361760a41b8187015260c088015287518089018952601681527f4261636b7761726473204261736562616c6c20436170000000000000000000008187015260e08801528751808901895260038152622332bd60e91b81870152610100880152875180890189526004808252634166726f60e01b828801526101208901919091528851808a018a528281526942756e6e79204561727360b01b818801526101408901528851808a018a52828152695468756d62205461636b60b01b818801526101608901528851808a018a5290815263466c797360e01b81870152610180880152875180890189528381526457696e677360d81b818701526101a08801528751808901895282815265427562626c6560d01b818701526101c088015287518089018952828152654665646f726160d01b818701526101e0880152875180890189528481526814d85b9d184812185d60ba1b81870152610200880152875180890189528181526915da5e985c990812185d60b21b81870152610220880152875180890189526008815267536f6d627265726f60c01b818701526102408801528751808901895281815269141a5c985d194812185d60b21b81870152610260880152875180890189528181526914d85a5b1bdc8812185d60b21b8187015261028088015287518089018952600e8082526d141c9bdc195b1b195c881219585960921b828801526102a08901919091528851808a018a5296875266151bdc0812185d60ca1b878701526102c088019690965287518089018952600b8082526a56696b696e672048656c6d60a81b828801526102e08901919091528851808a018a528481526421b937bbb760d91b818801526103008901528851808a018a529687526d13195c1c9958da185d5b8812185d60921b8787015261032088019690965287518089018952918252654265616e696560d01b82860152610340870191909152865180880188529283526814185c9d1e4812185d60ba1b83850152610360860192909252855180870187529182526910dbddd89bde4812185d60b21b82840152610380850191909152845180860186528181526414dadd5b1b60da1b818401526103a085015284518086018652908152641219585c9d60da1b818301526103c084015283518085019094529083526a5374696e6b204c696e657360a81b838201526103e082019290925262000b7f916002919062002039565b50604080516103e0810190915260786103408201818152829162009a5a61036084013981526020016040518060a00160405280607a815260200162009196607a913981526020016040518060a001604052806074815260200162008c146074913981526020016040518060a00160405280607a815260200162008ddc607a913981526020016040518060a00160405280606e815260200162008608606e913981526020016040518060a00160405280606e8152602001620099a8606e913981526020016040518060a00160405280607481526020016200982c6074913981526020016040518060a00160405280607c815260200162009772607c913981526020016040518060a00160405280607c8152602001620086b4607c913981526020016040518060a0016040528060688152602001620099406068913981526020016040518060a0016040528060808152602001620090d26080913981526020016040518060a00160405280607a815260200162009686607a913981526020016040518060a00160405280606c815260200162008cd8606c913981526020016040518060a00160405280607c815260200162009464607c913981526020016040518060a00160405280607481526020016200846a6074913981526020016040518060a0016040528060728152602001620097006072913981526020016040518060a001604052806080815260200162009ad26080913981526020016040518060a00160405280607e81526020016200900c607e913981526020016040518060c0016040528060888152602001620092ae6088913981526020016040518060a0016040528060768152602001620085926076913981526020016040518060a00160405280607a815260200162008f02607a913981526020016040518060a00160405280607a815260200162008b5a607a913981526020016040518060a00160405280607c8152602001620084de607c913981526020016040518060a0016040528060808152602001620087826080913981526020016040518060a00160405280607a815260200162008a28607a913981526020016040518060a001604052806070815260200162008d4460709139905262000ebb90600390601a6200208b565b5060408051610380810182526007610340820181815266111959985d5b1d60ca1b6103608401528252825180840184526004808252635065706560e01b602083810191909152808501929092528451808601865260068082526514da1bdad95960d21b82850152858701919091528551808701875260118152704e616e61204e616e6120426f6f20426f6f60781b8185015260608601528551808701875260038082526253757360e81b82860152608087019190915286518088018852600880825267155b985b5d5cd95960c21b8287015260a088019190915287518089018952600a8082526953756e676c617373657360b01b8288015260c08901919091528851808a018a52600580825264135bd9195b60da1b8289015260e08a01919091528951808b018b5281815264416e67727960d81b818901526101008a01528951808b018b5288815266476c617373657360c81b818901526101208a01528951808b018b5283815267436861726d696e6760c01b818901526101408a01528951808b018b52918252694265616479206579657360b01b828801526101608901919091528851808a018a5282815267536c656570696e6760c01b818801526101808901528851808a018a52878152664e6572766f757360c81b818801526101a08901528851808a018a52818152644472756e6b60d81b818801526101c08901528851808a018a5285815263536d756760e01b818801526101e08901528851808a018a528481526529b6b7b5b2b960d11b818801526102008901528851808a018a5284815265536c6565707960d01b818801526102208901528851808a018a5281815264105b195c9d60da1b818801526102408901528851808a018a529687526615d85a5cdd195960ca1b878701526102608801969096528751808901895295865264109b1a5b9960da1b8686015261028087019590955286518088018852828152654772756d707960d01b818601526102a0870152865180880188529081526214d85960ea1b818501526102c086015285518087018752600c81526b547261696c6572205061726b60a01b818501526102e08601528551808701875290815265546f6e67756560d01b8184015261030085015284518086019095529184526743796c636c6f707360c01b908401526103208201929092526200121e9190601a62001f75565b50604080516101408101909152604860c0820181815282916200908a60e08401398152602001604051806060016040528060348152602001620093c06034913981526020016040518060a0016040528060648152602001620098dc60649139815260200160405180606001604052806040815260200162008aa26040913981526020016040518060a00160405280606e8152602001620089ba606e9139815260200160405180606001604052806034815260200162008940603491399052620012ec906005906006620020dd565b506040805161010081018252600160c08201818152603160f81b60e0840152825282518084018452818152601960f91b6020828101919091528084019190915283518085018552828152603360f81b818301528385015283518085018552828152600d60fa1b81830152606084015283518085018552828152603560f81b8183015260808401528351808501909452908352601b60f91b9083015260a08101919091526200139e90600690816200212f565b506040518061020001604052806040518060400160405280600281526020016001600160f81b031981525081526020016040518060400160405280601081526020017fff00ff000f0001031c000103220001030000000000000000000000000000000081525081526020016040518060400160405280600c81526020017fff00ff000e0001033d000103000000000000000000000000000000000000000081525081526020016040518060400160405280600e81526020017fff00ed0001033d0001030200010300000000000000000000000000000000000081525081526020016040518060400160405280600c81526020017fff00ff000d0001032100010300000000000000000000000000000000000000008152508152602001604051806060016040528060248152602001620093366024913981526020016040518060400160405280601481526020017fff00ac0002011d0001010103410001031d00010300000000000000000000000081525081526020016040518060400160405280601a81526020017fff00ca0002011d00010102031d0001010103020001033d00010300000000000081525081526020016040518060400160405280600e81526020017fff00ed0001033d0001032200010300000000000000000000000000000000000081525081526020016040518060400160405280600c81526020017fff00ff000f0001031d000103000000000000000000000000000000000000000081525081526020016040518060400160405280600a81526020017fff00ed0001033d0001030000000000000000000000000000000000000000000081525081526020016040518060400160405280601081526020017fff00cb0001011e0001010103210001030000000000000000000000000000000081525081526020016040518060400160405280600c81526020017fff00ff002e0001031d000103000000000000000000000000000000000000000081525081526020016040518060400160405280601281526020017fff00ed0001033d0001030100010320000103000000000000000000000000000081525081526020016040518060400160405280601e81526020017fff00ac0001011e00010101033c0001011e0001010103020001031c000101000081525081526020016040518060400160405280601481526020017fff00ff000e0002031c000103010002031c00010300000000000000000000000081525081525060079060106200173792919062002181565b50604080516102408101825260016102008201818152603160f81b610220840152825282518084018452818152601960f91b6020828101919091528084019190915283518085018552828152603360f81b818301528385015283518085018552828152600d60fa1b81830152606084015283518085018552828152603560f81b81830152608084015283518085018552828152601b60f91b8183015260a084015283518085018552828152603760f81b8183015260c084015283518085018552828152600760fb1b8183015260e084015283518085018552918252603960f81b8282015261010083019190915282518084018452600280825261031360f41b828401526101208401919091528351808501855281815261313160f01b818401526101408401528351808501855281815261189960f11b818401526101608401528351808501855281815261313360f01b8184015261018084015283518085018552818152610c4d60f21b818401526101a08401528351808501855281815261313560f01b818401526101c08401528351808501909452835261189b60f11b908301526101e0810191909152620018f2906008906010620021d3565b5060405180604001604052806040518061016001604052806101308152602001620094e0610130913981526020016040518060c001604052806090815260200162008f7c6090913990526200194c90600990600262002225565b5060408051610240810182526006610200820181815265060606a708c760d31b6102208401528252825180840184528181526541344534464360d01b6020828101919091528084019190915283518085018552828152650887084708c760d31b8183015283850152835180850185528281526504638413443360d41b818301526060840152835180850185528281526508c868a6082760d31b8183015260808401528351808501855282815265084708c7084760d31b8183015260a0840152835180850185528281526530304643464360d01b8183015260c0840152835180850185528281526508870887088760d31b8183015260e084015283518085018552828152650847084708c760d31b81830152610100840152835180850185528281526542434243424360d01b81830152610120840152835180850185528281526534343238424360d01b8183015261014084015283518085018552828152650e4d0c0c0e0d60d21b81830152610160840152835180850185528281526503530333030360d41b8183015261018084015283518085018552828152650606068606a760d31b818301526101a0840152835180850185528281526504138303032360d41b8183018190526101c085019190915284518086019095529184528301526101e081019190915262001b4390600a906010620021d3565b5060408051610180810182526006610140820181815265084708c7084760d31b610160840152825282518084018452818152650887084708c760d31b60208281019190915280840191909152835180850185528281526541344534464360d01b818301528385015283518085018552828152650847084708c760d31b818301526060840152835180850185528281526508c7084708c760d31b818301526080840152835180850185528281526504630443042360d41b8183015260a0840152835180850185528281526508c868a6082760d31b8183015260c0840152835180850185528281526508c7088706e760d31b8183015260e08401528351808501855282815265088708c706e760d31b81830152610100840152835180850190945290835265084708c7088760d31b9083015261012081019190915262001c8c90600b90600a62002277565b506040805161018081018252600661014082018181526506060707070760d31b6101608401528252825180840184528181526503030413830360d41b60208281019190915280840191909152835180850185528281526503030423830360d41b8183015283850152835180850185528281526504143374330360d41b818301526060840152835180850185528281526504534354331360d41b818301526080840152835180850185528281526504638333830360d41b8183015260a0840152835180850185528281526508a6860606a760d31b8183015260c0840152835180850185528281526544383030434360d01b8183015260e0840152835180850185528281526536383434464360d01b81830152610100840152835180850190945290835265060606e708c760d31b9083015261012081019190915262001dd590600c90600a62002277565b506103e8601655604080516080810182526000815260fa60208201526101f4918101919091526102ee606082015262001e13906017906004620022c9565b50604080516080810182526611c37937e080008152662386f26fc10000602082015266354a6ba7a180009181019190915266470de4df820000606082015262001e619060189060046200231b565b506019805460ff19168155601a55601b805463ffffffff1916905534801562001e8957600080fd5b50604080518082018252601081526f54696e792042617365642046726f677360801b60208083019182528351808501909452600884526754494e5946524f4760c01b90840152815191929162001ee291600f9162002364565b50805162001ef890601090602084019062002364565b50506001600d555062001f0b3362001f23565b601f80546001600160a01b03191630179055620024c3565b601580546001600160a01b038381166001600160a01b0319831681179093556040519116919082907f8be0079c531659141344cd1fd0a4f28419497f9722a3daafe3b4186f6b6457e090600090a35050565b82805482825590600052602060002090810192821562001fc7579160200282015b8281111562001fc7578251805162001fb691849160209091019062002364565b509160200191906001019062001f96565b5062001fd5929150620023e1565b5090565b8280548282559060005260206000209081019282156200202b579160200282015b828111156200202b57825180516200201a91849160209091019062002364565b509160200191906001019062001ffa565b5062001fd592915062002402565b82805482825590600052602060002090810192821562001fc7579160200282015b8281111562001fc757825180516200207a91849160209091019062002364565b50916020019190600101906200205a565b8280548282559060005260206000209081019282156200202b579160200282015b828111156200202b5782518051620020cc91849160209091019062002364565b5091602001919060010190620020ac565b8280548282559060005260206000209081019282156200202b579160200282015b828111156200202b57825180516200211e91849160209091019062002364565b5091602001919060010190620020fe565b82805482825590600052602060002090810192821562001fc7579160200282015b8281111562001fc757825180516200217091849160209091019062002364565b509160200191906001019062002150565b8280548282559060005260206000209081019282156200202b579160200282015b828111156200202b5782518051620021c291849160209091019062002364565b5091602001919060010190620021a2565b82805482825590600052602060002090810192821562001fc7579160200282015b8281111562001fc757825180516200221491849160209091019062002364565b5091602001919060010190620021f4565b8280548282559060005260206000209081019282156200202b579160200282015b828111156200202b57825180516200226691849160209091019062002364565b509160200191906001019062002246565b82805482825590600052602060002090810192821562001fc7579160200282015b8281111562001fc75782518051620022b891849160209091019062002364565b509160200191906001019062002298565b8280548282559060005260206000209081019282156200230d579160200282015b828111156200230d578251829061ffff16905591602001919060010190620022ea565b5062001fd592915062002423565b8280548282559060005260206000209081019282156200230d579160200282015b828111156200230d578251829066ffffffffffffff169055916020019190600101906200233c565b828054620023729062002492565b90600052602060002090601f0160209004810192826200239657600085556200230d565b82601f10620023b157805160ff19168380011785556200230d565b828001600101855582156200230d579182015b828111156200230d578251825591602001919060010190620023c4565b8082111562001fd5576000620023f882826200243a565b50600101620023e1565b8082111562001fd55760006200241982826200243a565b5060010162002402565b5b8082111562001fd5576000815560010162002424565b508054620024489062002492565b6000825580601f1062002459575050565b601f01602090049060005260206000209081019062002479919062002423565b50565b634e487b7160e01b600052602260045260246000fd5b600281046001821680620024a757607f821691505b60208210811415620024bd57620024bd6200247c565b50919050565b615f9780620024d36000396000f3fe6080604052600436106104105760003560e01c80638462151c1161021e578063cb4b1c7711610123578063e6030688116100ab578063e7f1028b1161007a578063e7f1028b14610c49578063e985e9c514610c69578063f0503e8014610cb2578063f2fde38b14610cdf578063f6ad141014610cff57600080fd5b8063e603068814610bac578063e757223014610bcc578063e77f7b4b14610bec578063e7b5ec0f14610c1c57600080fd5b8063d4852044116100f2578063d485204414610b16578063dab56b0e14610b36578063dc33e68114610b56578063e1e8de0a14610b76578063e489d51014610b9657600080fd5b8063cb4b1c7714610a96578063ce4d776c14610ab6578063ce4eded314610ad6578063d04e347114610af657600080fd5b8063a22cb465116101a6578063b53e056e11610175578063b53e056e14610a03578063b88d4fde14610a23578063bd1ce46714610a36578063bfa584d214610a56578063c87b56dd14610a7657600080fd5b8063a22cb46514610984578063a56a58e0146109a4578063af42527f146109c3578063b07ed982146109e357600080fd5b8063911ec470116101ed578063911ec470146108e8578063958ba0bf1461090857806395d89b411461092857806397974b401461093d5780639da3f8fd1461095d57600080fd5b80638462151c1461085d578063887fee311461088a57806389b89f5a146108aa5780638da5cb5b146108ca57600080fd5b80633726230a116103245780636352211e116102ac57806370a082311161027b57806370a08231146107b8578063715018a6146107d857806375326ab6146107ed5780637a1815971461080d5780637a9db9901461083d57600080fd5b80636352211e14610745578063661387bc1461076557806367f02918146107785780636c6eb9d11461079857600080fd5b806347cb5a43116102f357806347cb5a43146106ab5780634bf967ff146106cb57806351830227146106eb57806351cff8d914610705578063532126371461072557600080fd5b80633726230a146106435780633ea126531461065857806342842e0e1461067857806343ff8bf61461068b57600080fd5b806310252bb3116103a75780631ec1a526116103765780631ec1a526146105af5780632009e312146105d057806323b872dd146105f05780632dfd8ffe1461060357806331659b7e1461062357600080fd5b806310252bb31461053c578063104e8a7c1461055257806312ef6b971461057257806318160ddd1461059257600080fd5b8063081812fc116103e3578063081812fc146104ad578063095ea7b3146104da5780630cd19d09146104ef5780630ce1dccd1461051c57600080fd5b806301ffc9a714610415578063027748371461044b57806305184f9c1461047857806306fdde0314610498575b600080fd5b34801561042157600080fd5b506104356104303660046147c2565b610d1f565b60405161044291906147ed565b60405180910390f35b34801561045757600080fd5b5061046b61046636600461480c565b610d71565b604051610442919061488b565b34801561048457600080fd5b5061046b61049336600461480c565b610e1d565b3480156104a457600080fd5b5061046b610e2d565b3480156104b957600080fd5b506104cd6104c836600461480c565b610ebf565b60405161044291906148b6565b6104ed6104e83660046148d8565b610f03565b005b3480156104fb57600080fd5b5061050f61050a36600461480c565b610fa3565b604051610442919061491b565b34801561052857600080fd5b5061046b61053736600461480c565b610fc4565b34801561054857600080fd5b5061050f601a5481565b34801561055e57600080fd5b5061046b61056d36600461480c565b610fd4565b34801561057e57600080fd5b5061046b61058d36600461493c565b610fe4565b34801561059e57600080fd5b50600e54600d54036000190161050f565b3480156105bb57600080fd5b50601b54610435906301000000900460ff1681565b3480156105dc57600080fd5b506104ed6105eb36600461480c565b610ff7565b6104ed6105fe36600461496f565b61109f565b34801561060f57600080fd5b5061043561061e36600461480c565b611235565b34801561062f57600080fd5b5061046b61063e36600461480c565b611287565b34801561064f57600080fd5b5061050f611297565b34801561066457600080fd5b506104ed610673366004614a10565b6112a6565b6104ed61068636600461496f565b6112dc565b34801561069757600080fd5b506104ed6106a636600461480c565b6112fc565b3480156106b757600080fd5b506104ed6106c6366004614a87565b611309565b3480156106d757600080fd5b5061046b6106e636600461480c565b6113b9565b3480156106f757600080fd5b50601b546104359060ff1681565b34801561071157600080fd5b506104ed610720366004614ace565b6113c9565b34801561073157600080fd5b5061046b61074036600461480c565b611452565b34801561075157600080fd5b506104cd61076036600461480c565b611462565b6104ed61077336600461480c565b61146d565b34801561078457600080fd5b5061046b61079336600461493c565b611521565b3480156107a457600080fd5b5061046b6107b336600461480c565b61152d565b3480156107c457600080fd5b5061050f6107d3366004614ace565b61153d565b3480156107e457600080fd5b506104ed61158b565b3480156107f957600080fd5b506104ed61080836600461480c565b61159f565b34801561081957600080fd5b5061043561082836600461480c565b601d6020526000908152604090205460ff1681565b34801561084957600080fd5b506104ed610858366004614aef565b611600565b34801561086957600080fd5b5061087d610878366004614ace565b611624565b6040516104429190614b6d565b34801561089657600080fd5b506104ed6108a536600461480c565b611733565b3480156108b657600080fd5b5061046b6108c536600461480c565b611770565b3480156108d657600080fd5b506015546001600160a01b03166104cd565b3480156108f457600080fd5b5061043561090336600461480c565b61177b565b34801561091457600080fd5b5061046b61092336600461480c565b6117c9565b34801561093457600080fd5b5061046b6117d9565b34801561094957600080fd5b5061046b61095836600461480c565b6117e8565b34801561096957600080fd5b506019546109779060ff1681565b6040516104429190614bc7565b34801561099057600080fd5b506104ed61099f366004614bd5565b6117f8565b3480156109b057600080fd5b50601b5461043590610100900460ff1681565b3480156109cf57600080fd5b5061046b6109de36600461480c565b611867565b3480156109ef57600080fd5b506104ed6109fe36600461480c565b611877565b348015610a0f57600080fd5b506104ed610a1e366004614a87565b611884565b6104ed610a31366004614ce3565b61191d565b348015610a4257600080fd5b506104ed610a51366004614aef565b611961565b348015610a6257600080fd5b506104ed610a71366004614ace565b611983565b348015610a8257600080fd5b5061046b610a9136600461480c565b6119ad565b348015610aa257600080fd5b50601b546104359062010000900460ff1681565b348015610ac257600080fd5b506104ed610ad136600461480c565b611a08565b348015610ae257600080fd5b506104ed610af13660046148d8565b611a58565b348015610b0257600080fd5b5061050f610b1136600461480c565b611a6e565b348015610b2257600080fd5b5061046b610b3136600461480c565b611a7e565b348015610b4257600080fd5b506104ed610b51366004614aef565b611a89565b348015610b6257600080fd5b5061050f610b71366004614ace565b611ae3565b348015610b8257600080fd5b506104ed610b91366004614aef565b611b0d565b348015610ba257600080fd5b5061050f60165481565b348015610bb857600080fd5b5061046b610bc736600461480c565b611b33565b348015610bd857600080fd5b5061050f610be736600461480c565b611b43565b348015610bf857600080fd5b50610435610c0736600461480c565b601e6020526000908152604090205460ff1681565b348015610c2857600080fd5b50601f54610c3c906001600160a01b031681565b6040516104429190614da3565b348015610c5557600080fd5b5061046b610c6436600461480c565b611b4e565b348015610c7557600080fd5b50610435610c84366004614db1565b6001600160a01b03918216600090815260146020908152604080832093909416825291909152205460ff1690565b348015610cbe57600080fd5b5061050f610ccd36600461480c565b601c6020526000908152604090205481565b348015610ceb57600080fd5b506104ed610cfa366004614ace565b611b5e565b348015610d0b57600080fd5b506104ed610d1a366004614de4565b611b95565b60006301ffc9a760e01b6001600160e01b031983161480610d5057506380ac58cd60e01b6001600160e01b03198316145b80610d6b5750635b5e139f60e01b6001600160e01b03198316145b92915050565b600c8181548110610d8157600080fd5b906000526020600020016000915090508054610d9c90614e4a565b80601f0160208091040260200160405190810160405280929190818152602001828054610dc890614e4a565b8015610e155780601f10610dea57610100808354040283529160200191610e15565b820191906000526020600020905b815481529060010190602001808311610df857829003601f168201915b505050505081565b60018181548110610d8157600080fd5b6060600f8054610e3c90614e4a565b80601f0160208091040260200160405190810160405280929190818152602001828054610e6890614e4a565b8015610eb55780601f10610e8a57610100808354040283529160200191610eb5565b820191906000526020600020905b815481529060010190602001808311610e9857829003601f168201915b5050505050905090565b6000610eca82611bf3565b610ee7576040516333d1c03960e21b815260040160405180910390fd5b506000908152601360205260409020546001600160a01b031690565b6000610f0e82611462565b9050336001600160a01b03821614610f4757610f2a8133610c84565b610f47576040516367d9dca160e11b815260040160405180910390fd5b60008281526013602052604080822080546001600160a01b0319166001600160a01b0387811691821790925591518593918516917f8c5be1e5ebec7d5bd14f71427d1e84f3dd0314c0f7b2291e5b200ac8c7c3b92591a4505050565b60188181548110610fb357600080fd5b600091825260209091200154905081565b60028181548110610d8157600080fd5b60078181548110610d8157600080fd5b6060610ff08383611c28565b9392505050565b80336110028261240a565b516001600160a01b0316148061102857503361101d82610ebf565b6001600160a01b0316145b61104d5760405162461bcd60e51b815260040161104490614ea1565b60405180910390fd5b601b5462010000900460ff16151560011461106757600080fd5b6110708261243f565b60405182907f182ced0666d49187358d2301e81a062dbd327bc6c81f685cc02fb0437a545d2290600090a25050565b60006110aa8261244a565b9050836001600160a01b0316816001600160a01b0316146110dd5760405162a1148160e81b815260040160405180910390fd5b600082815260136020526040902080546111098187335b6001600160a01b039081169116811491141790565b611134576111178633610c84565b61113457604051632ce44b5f60e11b815260040160405180910390fd5b6001600160a01b03851661115b57604051633a954ecd60e21b815260040160405180910390fd5b61116886868660016124b3565b801561117357600082555b6001600160a01b038681166000908152601260205260408082208054600019019055918716808252919020805460010190554260a01b17600160e11b17600085815260116020526040902055600160e11b83166111fe57600184016000818152601160205260409020546111fc57600d5481146111fc5760008181526011602052604090208490555b505b83856001600160a01b0316876001600160a01b0316600080516020615f4283398151915260405160405180910390a4505050505050565b60008160018110158015611250575061124c61251b565b8111155b61126c5760405162461bcd60e51b815260040161104490614ed7565b6000838152601e602052604090205460ff1691505b50919050565b60048181548110610d8157600080fd5b60006112a161251b565b905090565b6112ae612525565b60175481146112bc57600080fd5b6112c860178585614740565b506112d560188383614740565b5050505050565b6112f78383836040518060200160405280600081525061191d565b505050565b611304612525565b601a55565b601b54610100900460ff166113305760405162461bcd60e51b815260040161104490614f0c565b8060005b818110156113b357600084848381811061135057611350614f1c565b9050602002013590506113603390565b6001600160a01b03166113728261240a565b516001600160a01b0316146113995760405162461bcd60e51b815260040161104490614f51565b6113a28161254f565b506113ac81614f77565b9050611334565b50505050565b60068181548110610d8157600080fd5b6113d1612525565b60004790506000826001600160a01b0316826040516113ef90614f92565b60006040518083038185875af1925050503d806000811461142c576040519150601f19603f3d011682016040523d82523d6000602084013e611431565b606091505b50509050806112f75760405162461bcd60e51b815260040161104490614fc5565b60088181548110610d8157600080fd5b6000610d6b8261244a565b600160195460ff16600181111561148657611486614b7e565b146114a35760405162461bcd60e51b815260040161104490614ffe565b6114ac81612749565b3410156114cb5760405162461bcd60e51b815260040161104490615036565b601a5433600090815260126020526040908190205483911c6001600160401b03166114f69190615046565b11156115145760405162461bcd60e51b815260040161104490615086565b61151e33826127dc565b50565b6060610ff08383612881565b60038181548110610d8157600080fd5b60006001600160a01b038216611566576040516323d3ad8160e21b815260040160405180910390fd5b506001600160a01b03166000908152601260205260409020546001600160401b031690565b611593612525565b61159d6000612c02565b565b601b54610100900460ff166115c65760405162461bcd60e51b815260040161104490614f0c565b336115d08261240a565b516001600160a01b0316146115f75760405162461bcd60e51b815260040161104490614f51565b61151e8161254f565b611608612525565b601b8054911515620100000262ff000019909216919091179055565b606060008060006116348561153d565b90506000816001600160401b0381111561165057611650614bf7565b604051908082528060200260200182016040528015611679578160200160208202803683370190505b5090506116a660408051608081018252600080825260208201819052918101829052606081019190915290565b60015b838614611727576116b981612c54565b91508160400151156116ca5761171f565b81516001600160a01b0316156116df57815194505b876001600160a01b0316856001600160a01b0316141561171f578083878060010198508151811061171257611712614f1c565b6020026020010181815250505b6001016116a9565b50909695505050505050565b61173b612525565b80600181111561174d5761174d614b7e565b6019805460ff19166001838181111561176857611768614b7e565b021790555050565b6060610d6b82612c90565b60008160018110158015611796575061179261251b565b8111155b6117b25760405162461bcd60e51b815260040161104490614ed7565b50506000908152601d602052604090205460ff1690565b60008181548110610d8157600080fd5b606060108054610e3c90614e4a565b600b8181548110610d8157600080fd5b3360008181526014602090815260408083206001600160a01b038716808552925291829020805460ff191685151517905590519091907f17307eab39ab6107e8899845ad3d59bd9653f200f220920489ca2b5937696c319061185b9085906147ed565b60405180910390a35050565b60098181548110610d8157600080fd5b61187f612525565b601655565b601b546301000000900460ff1661189a57600080fd5b8060005b818110156113b35760008484838181106118ba576118ba614f1c565b9050602002013590506118ca3390565b6001600160a01b03166118dc8261240a565b516001600160a01b0316146119035760405162461bcd60e51b815260040161104490614f51565b61190c81612e33565b5061191681614f77565b905061189e565b61192884848461109f565b6001600160a01b0383163b156113b35761194484848484612ed1565b6113b3576040516368d2bf6b60e11b815260040160405180910390fd5b611969612525565b601b80549115156101000261ff0019909216919091179055565b61198b612525565b601f80546001600160a01b0319166001600160a01b0392909216919091179055565b606081600181101580156119c857506119c461251b565b8111155b6119e45760405162461bcd60e51b815260040161104490614ed7565b601b5460ff16156119ff576119f883612fc8565b9150611281565b6119f883613298565b601b546301000000900460ff16611a1e57600080fd5b33611a288261240a565b516001600160a01b031614611a4f5760405162461bcd60e51b815260040161104490614f51565b61151e81612e33565b611a60612525565b611a6a82826127dc565b5050565b60178181548110610fb357600080fd5b6060610d6b82613384565b611a91612525565b601b805460ff19168215151790557f6bd5c950a8d8df17f772f5af37cb3655737899cbf903264b9795592da439661c6001611aca61251b565b604051611ad89291906150ab565b60405180910390a150565b6001600160a01b038116600090815260126020526040808220546001600160401b03911c16610d6b565b611b15612525565b601b805491151563010000000263ff00000019909216919091179055565b600a8181548110610d8157600080fd5b6000610d6b82612749565b60058181548110610d8157600080fd5b611b66612525565b6001600160a01b038116611b8c5760405162461bcd60e51b8152600401611044906150c6565b61151e81612c02565b611b9d612525565b8180611ba857600080fd5b60005b818110156112d557611be3858583818110611bc857611bc8614f1c565b9050602002016020810190611bdd9190614ace565b846127dc565b611bec81614f77565b9050611bab565b600081600111158015611c075750600d5482105b8015610d6b575050600090815260116020526040902054600160e01b161590565b60606000611c3584613557565b90506000600b826020015181548110611c5057611c50614f1c565b906000526020600020018054611c6590614e4a565b80601f0160208091040260200160405190810160405280929190818152602001828054611c9190614e4a565b8015611cde5780601f10611cb357610100808354040283529160200191611cde565b820191906000526020600020905b815481529060010190602001808311611cc157829003601f168201915b505050505090506000600c836020015181548110611cfe57611cfe614f1c565b906000526020600020018054611d1390614e4a565b80601f0160208091040260200160405190810160405280929190818152602001828054611d3f90614e4a565b8015611d8c5780601f10611d6157610100808354040283529160200191611d8c565b820191906000526020600020905b815481529060010190602001808311611d6f57829003601f168201915b505050505090506000600a846000015181548110611dac57611dac614f1c565b90600052602060002001611f3c6003866040015181548110611dd057611dd0614f1c565b906000526020600020018054611de590614e4a565b80601f0160208091040260200160405190810160405280929190818152602001828054611e1190614e4a565b8015611e5e5780601f10611e3357610100808354040283529160200191611e5e565b820191906000526020600020905b815481529060010190602001808311611e4157829003601f168201915b50505050506000805480602002602001604051908101604052809291908181526020016000905b82821015611f31578382906000526020600020018054611ea490614e4a565b80601f0160208091040260200160405190810160405280929190818152602001828054611ed090614e4a565b8015611f1d5780601f10611ef257610100808354040283529160200191611f1d565b820191906000526020600020905b815481529060010190602001808311611f0057829003601f168201915b505050505081526020019060010190611e85565b505050508686613654565b6120c26007876060015181548110611f5657611f56614f1c565b906000526020600020018054611f6b90614e4a565b80601f0160208091040260200160405190810160405280929190818152602001828054611f9790614e4a565b8015611fe45780601f10611fb957610100808354040283529160200191611fe4565b820191906000526020600020905b815481529060010190602001808311611fc757829003601f168201915b50505050506000805480602002602001604051908101604052809291908181526020016000905b828210156120b757838290600052602060002001805461202a90614e4a565b80601f016020809104026020016040519081016040528092919081815260200182805461205690614e4a565b80156120a35780601f10612078576101008083540402835291602001916120a3565b820191906000526020600020905b81548152906001019060200180831161208657829003601f168201915b50505050508152602001906001019061200b565b505050508787613654565b61224660018860800151815481106120dc576120dc614f1c565b9060005260206000200180546120f190614e4a565b80601f016020809104026020016040519081016040528092919081815260200182805461211d90614e4a565b801561216a5780601f1061213f5761010080835404028352916020019161216a565b820191906000526020600020905b81548152906001019060200180831161214d57829003601f168201915b50505050506000805480602002602001604051908101604052809291908181526020016000905b8282101561223d5783829060005260206000200180546121b090614e4a565b80601f01602080910402602001604051908101604052809291908181526020018280546121dc90614e4a565b80156122295780601f106121fe57610100808354040283529160200191612229565b820191906000526020600020905b81548152906001019060200180831161220c57829003601f168201915b505050505081526020019060010190612191565b50505050613bf8565b8961226057604051806020016040528060008152506123db565b6123db60058960a001518154811061227a5761227a614f1c565b90600052602060002001805461228f90614e4a565b80601f01602080910402602001604051908101604052809291908181526020018280546122bb90614e4a565b80156123085780601f106122dd57610100808354040283529160200191612308565b820191906000526020600020905b8154815290600101906020018083116122eb57829003601f168201915b50505050506000805480602002602001604051908101604052809291908181526020016000905b8282101561223d57838290600052602060002001805461234e90614e4a565b80601f016020809104026020016040519081016040528092919081815260200182805461237a90614e4a565b80156123c75780601f1061239c576101008083540402835291602001916123c7565b820191906000526020600020905b8154815290600101906020018083116123aa57829003601f168201915b50505050508152602001906001019061232f565b6040516020016123ef95949392919061528a565b60408051808303601f19018152919052979650505050505050565b604080516080810182526000808252602082018190529181018290526060810191909152610d6b61243a8361244a565b6140a1565b61151e8160006140e8565b6000818060011161249a57600d5481101561249a57600081815260116020526040902054600160e01b8116612498575b80610ff057506000190160008181526011602052604090205461247a565b505b604051636f96cda160e11b815260040160405180910390fd5b6001600160a01b0384166124c6576113b3565b815b6124d28284615046565b8110156112d5576000818152601d602052604090205460ff161561250b5780604051630817ac8360e11b8152600401611044919061491b565b61251481614f77565b90506124c8565b600d546000190190565b6015546001600160a01b0316331461159d5760405162461bcd60e51b815260040161104490615324565b6000818152601e602052604090205460ff161561257e5760405162461bcd60e51b815260040161104490615357565b6000818152601d602052604090205460ff16156125ad5760405162461bcd60e51b81526004016110449061538f565b60006125ba60014361539f565b4082336040516020016125cf939291906153f1565b60408051601f19818403018152919052805160209091012090506125f4600382615442565b6126d9576000828152601d602090815260408083208054600160ff199182168117909255601e9093528184208054909316179091555183917f76b49988b90e94a5bfed4dea47aad219142c0e805242c3e6af02dba61a61f03291a260405182907fd957aba451d8a829f78badd36c42e3677a4e47e301f6d198dcd8701102bfed9990600090a2604051309083907f9ecfd70e9ff36df72989324a49559383d39f9290d700b10cf5ac10dcb68d264390600090a3604051829030907f625fed9875dada8643f2418b838ae0bc78d9a148a18eee4ee1979ff0f3f5d42790600090a361270e565b6126e282614228565b60405182907fab0da20d767422092730fd9d05b4a3c781446cd8d9c37704a7b0f71cb9db3f4290600090a25b7ff8e1a15aba9398e019f0b49df1a4fde98ee17ae345cb5f6b5e2c27f5033e8ce78260405161273d919061491b565b60405180910390a15050565b60008061275461251b565b9050600080600160178054905061276b919061539f565b90505b6017818154811061278157612781614f1c565b9060005260206000200154831061279a578091506127aa565b6127a381615456565b905061276e565b50601881815481106127be576127be614f1c565b9060005260206000200154846127d4919061546d565b949350505050565b80600081116127fd5760405162461bcd60e51b8152600401611044906154b2565b6016548161280961251b565b6128139190615046565b11156128315760405162461bcd60e51b8152600401611044906154e0565b600061283b61251b565b612846906001615046565b9050805b6128548483615046565b8110156128765761286481614228565b8061286e81614f77565b91505061284a565b506113b38484614270565b6060600061288e84613557565b604080516102608101825260016102208201818152600360fc1b610240840152825282518084018452818152603160f81b6020828101919091528084019190915283518085018552828152601960f91b818301528385015283518085018552828152603360f81b81830152606084015283518085018552828152600d60fa1b81830152608084015283518085018552828152603560f81b8183015260a084015283518085018552828152601b60f91b8183015260c084015283518085018552828152603760f81b8183015260e084015283518085018552828152600760fb1b8183015261010084015283518085018552828152603960f81b8183015261012084015283518085018552600280825261031360f41b828401526101408501919091528451808601865281815261313160f01b818401526101608501528451808601865281815261189960f11b818401526101808501528451808601865281815261313360f01b818401526101a085015284518086018652818152610c4d60f21b818401526101c08501528451808601865281815261313560f01b818401526101e08501528451808601909552845261189b60f11b908401526102008201929092528251929350916000918391612a6291615046565b60118110612a7257612a72614f1c565b60200201518284602001516001612a899190615046565b60118110612a9957612a99614f1c565b60200201516004856040015181548110612ab557612ab5614f1c565b906000526020600020016008866060015181548110612ad657612ad6614f1c565b906000526020600020016002876080015181548110612af757612af7614f1c565b9060005260206000200189612bb55760068860a0015181548110612b1d57612b1d614f1c565b906000526020600020018054612b3290614e4a565b80601f0160208091040260200160405190810160405280929190818152602001828054612b5e90614e4a565b8015612bab5780601f10612b8057610100808354040283529160200191612bab565b820191906000526020600020905b815481529060010190602001808311612b8e57829003601f168201915b5050505050612bd3565b604051806040016040528060048152602001634e6f6e6560e01b8152505b604051602001612be8969594939291906155cc565b60408051808303601f190181529190529695505050505050565b601580546001600160a01b038381166001600160a01b0319831681179093556040519116919082907f8be0079c531659141344cd1fd0a4f28419497f9722a3daafe3b4186f6b6457e090600090a35050565b604080516080810182526000808252602082018190529181018290526060810191909152600082815260116020526040902054610d6b906140a1565b60606000612e0c6009600181548110612cab57612cab614f1c565b906000526020600020018054612cc090614e4a565b80601f0160208091040260200160405190810160405280929190818152602001828054612cec90614e4a565b8015612d395780601f10612d0e57610100808354040283529160200191612d39565b820191906000526020600020905b815481529060010190602001808311612d1c57829003601f168201915b50505050506000805480602002602001604051908101604052809291908181526020016000905b8282101561223d578382906000526020600020018054612d7f90614e4a565b80601f0160208091040260200160405190810160405280929190818152602001828054612dab90614e4a565b8015612df85780601f10612dcd57610100808354040283529160200191612df8565b820191906000526020600020905b815481529060010190602001808311612ddb57829003601f168201915b505050505081526020019060010190612d60565b604051602001612e1c91906156e8565b60408051601f198184030181529190529392505050565b6000818152601d602052604090205460ff1615612e625760405162461bcd60e51b81526004016110449061538f565b6000818152601d6020526040808220805460ff191660011790555182917f76b49988b90e94a5bfed4dea47aad219142c0e805242c3e6af02dba61a61f03291a27ff8e1a15aba9398e019f0b49df1a4fde98ee17ae345cb5f6b5e2c27f5033e8ce781604051611ad8919061491b565b604051630a85bd0160e11b81526000906001600160a01b0385169063150b7a0290612f069033908990889088906004016157c9565b602060405180830381600087803b158015612f2057600080fd5b505af1925050508015612f50575060408051601f3d908101601f19168201909252612f4d91810190615818565b60015b612fab573d808015612f7e576040519150601f19603f3d011682016040523d82523d6000602084013e612f83565b606091505b508051612fa3576040516368d2bf6b60e11b815260040160405180910390fd5b805181602001fd5b6001600160e01b031916630a85bd0160e11b149050949350505050565b6000818152601c6020908152604080832054601e835281842054601d90935290832054606093919260ff908116929116908261308957601f546040516312ef6b9760e01b81526001600160a01b03909116906312ef6b97906130309087908690600401615839565b60006040518083038186803b15801561304857600080fd5b505afa15801561305c573d6000803e3d6000fd5b505050506040513d6000823e601f3d908101601f1916820160405261308491908101906158ac565b61310d565b601f546040516344dc4fad60e11b81526001600160a01b03909116906389b89f5a906130b990879060040161491b565b60006040518083038186803b1580156130d157600080fd5b505afa1580156130e5573d6000803e3d6000fd5b505050506040513d6000823e601f3d908101601f1916820160405261310d91908101906158ac565b9050600061326a61311d8861428a565b601f54604051630cfe052360e31b81526001600160a01b03909116906367f029189061314f908a908990600401615839565b60006040518083038186803b15801561316757600080fd5b505afa15801561317b573d6000803e3d6000fd5b505050506040513d6000823e601f3d908101601f191682016040526131a391908101906158ac565b6131ac88614326565b876131d45760405180604001604052806005815260200164112cb2b99160d91b8152506131f2565b604051806040016040528060048152602001631127379160e11b8152505b8761321957604051806040016040528060048152602001631127379160e11b815250613238565b60405180604001604052806005815260200164112cb2b99160d91b8152505b6132418861438a565b60405160200161325696959493929190615a49565b60405160208183030381529060405261438a565b90508060405160200161327d9190615b4d565b60405160208183030381529060405295505050505050919050565b6000818152601c602052604080822054601f549151633521481160e21b815260609391926001600160a01b03169063d4852044906132da90859060040161491b565b60006040518083038186803b1580156132f257600080fd5b505afa158015613306573d6000803e3d6000fd5b505050506040513d6000823e601f3d908101601f1916820160405261332e91908101906158ac565b9050600061335861333e8661428a565b6133478461438a565b604051602001613256929190615b7f565b90508060405160200161336b9190615b4d565b6040516020818303038152906040529350505050919050565b6060600061339183613557565b90506000600a8260000151815481106133ac576133ac614f1c565b9060005260206000200161352e60096000815481106133cd576133cd614f1c565b9060005260206000200180546133e290614e4a565b80601f016020809104026020016040519081016040528092919081815260200182805461340e90614e4a565b801561345b5780601f106134305761010080835404028352916020019161345b565b820191906000526020600020905b81548152906001019060200180831161343e57829003601f168201915b50505050506000805480602002602001604051908101604052809291908181526020016000905b8282101561223d5783829060005260206000200180546134a190614e4a565b80601f01602080910402602001604051908101604052809291908181526020018280546134cd90614e4a565b801561351a5780601f106134ef5761010080835404028352916020019161351a565b820191906000526020600020905b8154815290600101906020018083116134fd57829003601f168201915b505050505081526020019060010190613482565b60405160200161353f929190615c3f565b60408051601f19818403018152919052949350505050565b6135906040518060c001604052806000815260200160008152602001600081526020016000815260200160008152602001600081525090565b6040805160c08101909152600a5481906135aa9085615442565b8152600b546020909101906135c0600286615c78565b6135ca9190615442565b81526020016003805490506003856135e29190615c78565b6135ec9190615442565b8152600754602090910190613602600486615c78565b61360c9190615442565b8152600154602090910190613622600586615c78565b61362c9190615442565b8152600554602090910190613642600686615c78565b61364c9190615442565b905292915050565b604080516104608101825260016104208201818152600360fc1b610440840152825282518084018452818152603160f81b6020828101919091528084019190915283518085018552828152601960f91b818301528385015283518085018552828152603360f81b8183015260608481019190915284518086018652838152600d60fa1b81840152608085015284518086018652838152603560f81b8184015260a085015284518086018652838152601b60f91b8184015260c085015284518086018652838152603760f81b8184015260e085015284518086018652838152600760fb1b8184015261010085015284518086018652928352603960f81b8383015261012084019290925283518085018552600280825261031360f41b828401526101408501919091528451808601865281815261313160f01b818401526101608501528451808601865281815261189960f11b818401526101808501528451808601865281815261313360f01b818401526101a085015284518086018652818152610c4d60f21b818401526101c08501528451808601865281815261313560f01b818401526101e08501528451808601865281815261189b60f11b818401526102008501528451808601865281815261313760f01b818401526102208501528451808601865281815261062760f31b818401526102408501528451808601865281815261313960f01b818401526102608501528451808601865281815261032360f41b818401526102808501528451808601865281815261323160f01b818401526102a08501528451808601865281815261191960f11b818401526102c08501528451808601865281815261323360f01b818401526102e085015284518086018652818152610c8d60f21b818401526103008501528451808601865281815261323560f01b818401526103208501528451808601865281815261191b60f11b818401526103408501528451808601865281815261323760f01b818401526103608501528451808601865281815261064760f31b818401526103808501528451808601865281815261323960f01b818401526103a08501528451808601865281815261033360f41b818401526103c08501528451808601865281815261333160f01b818401526103e08501528451808601909552845261199960f11b90840152610400820192909252816000805b8851811015613beb5760008982815181106139dd576139dd614f1c565b016020015160f81c905060008a6139f5846001615046565b81518110613a0557613a05614f1c565b0160209081015160f81c9150600090613a1e9086615442565b90506000613a2d602087615c78565b905060ff8316613a3c57613bc4565b8260ff1660031415613ac25786888560ff1660218110613a5e57613a5e614f1c565b6020020151898460ff1660218110613a7857613a78614f1c565b60200201518a8460ff1660218110613a9257613a92614f1c565b60200201518e604051602001613aac959493929190615ca2565b6040516020818303038152906040529650613bc4565b8260ff1660041415613b325786888560ff1660218110613ae457613ae4614f1c565b6020020151898460ff1660218110613afe57613afe614f1c565b60200201518a8460ff1660218110613b1857613b18614f1c565b60200201518d604051602001613aac959493929190615ca2565b86888560ff1660218110613b4857613b48614f1c565b6020020151898460ff1660218110613b6257613b62614f1c565b60200201518a8460ff1660218110613b7c57613b7c614f1c565b60200201518f8760ff1681518110613b9657613b96614f1c565b6020026020010151604051602001613bb2959493929190615ca2565b60405160208183030381529060405296505b613bd160ff851687615046565b955050505050806002613be49190615046565b90506139c0565b5090979650505050505050565b604080516104608101825260016104208201818152600360fc1b610440840152825282518084018452818152603160f81b6020828101919091528084019190915283518085018552828152601960f91b818301528385015283518085018552828152603360f81b8183015260608481019190915284518086018652838152600d60fa1b81840152608085015284518086018652838152603560f81b8184015260a085015284518086018652838152601b60f91b8184015260c085015284518086018652838152603760f81b8184015260e085015284518086018652838152600760fb1b8184015261010085015284518086018652928352603960f81b8383015261012084019290925283518085018552600280825261031360f41b828401526101408501919091528451808601865281815261313160f01b818401526101608501528451808601865281815261189960f11b818401526101808501528451808601865281815261313360f01b818401526101a085015284518086018652818152610c4d60f21b818401526101c08501528451808601865281815261313560f01b818401526101e08501528451808601865281815261189b60f11b818401526102008501528451808601865281815261313760f01b818401526102208501528451808601865281815261062760f31b818401526102408501528451808601865281815261313960f01b818401526102608501528451808601865281815261032360f41b818401526102808501528451808601865281815261323160f01b818401526102a08501528451808601865281815261191960f11b818401526102c08501528451808601865281815261323360f01b818401526102e085015284518086018652818152610c8d60f21b818401526103008501528451808601865281815261323560f01b818401526103208501528451808601865281815261191b60f11b818401526103408501528451808601865281815261323760f01b818401526103608501528451808601865281815261064760f31b818401526103808501528451808601865281815261323960f01b818401526103a08501528451808601865281815261033360f41b818401526103c08501528451808601865281815261333160f01b818401526103e08501528451808601909552845261199960f11b90840152610400820192909252816000805b8651811015614096576000878281518110613f8157613f81614f1c565b016020015160f81c9050600088613f99846001615046565b81518110613fa957613fa9614f1c565b016020015160f81c90508015614071576000613fc6602086615442565b90506000613fd5602087615c78565b905060008a8460ff1681518110613fee57613fee614f1c565b6020026020010151905087898660ff166021811061400e5761400e614f1c565b60200201518a8560ff166021811061402857614028614f1c565b60200201518b8560ff166021811061404257614042614f1c565b60200201518460405160200161405c959493929190615ca2565b60405160208183030381529060405297505050505b61407e60ff831685615046565b9350505080600261408f9190615046565b9050613f64565b509095945050505050565b604080516080810182526001600160a01b038316815260a083901c6001600160401b03166020820152600160e01b831615159181019190915260e89190911c606082015290565b60006140f38361244a565b90508060008061411186600090815260136020526040902080549091565b915091508415614151576141268184336110f4565b614151576141348333610c84565b61415157604051632ce44b5f60e11b815260040160405180910390fd5b61415f8360008860016124b3565b801561416a57600082555b6001600160a01b038316600081815260126020526040902080546fffffffffffffffffffffffffffffffff0190554260a01b17600360e01b17600087815260116020526040902055600160e11b84166141f157600186016000818152601160205260409020546141ef57600d5481146141ef5760008181526011602052604090208590555b505b60405186906000906001600160a01b03861690600080516020615f42833981519152908390a45050600e8054600101905550505050565b61423360014361539f565b40813360405160200161424893929190615d31565b60408051601f1981840301815291815281516020928301206000938452601c90925290912055565b611a6a8282604051806020016040528060008152506144ef565b6060600061429783614555565b60010190506000816001600160401b038111156142b6576142b6614bf7565b6040519080825280601f01601f1916602001820160405280156142e0576020820181803683370190505b5090508181016020015b600019016f181899199a1a9b1b9c1cb0b131b232b360811b600a86061a8153600a85049450846143195761431e565b6142ea565b509392505050565b6060600061434161433c8460026001600561462d565b61428a565b61435361433c8560036001600a61462d565b61436561433c8660046001600a61462d565b61437761433c8760056001600a61462d565b604051602001612e1c9493929190615d68565b60608151600014156143aa57505060408051602081019091526000815290565b6000604051806060016040528060408152602001615f0260409139905060006003845160026143d99190615046565b6143e39190615c78565b6143ee90600461546d565b905060006143fd826020615046565b6001600160401b0381111561441457614414614bf7565b6040519080825280601f01601f19166020018201604052801561443e576020820181803683370190505b509050818152600183018586518101602084015b818310156144aa576003830192508251603f8160121c168501518253600182019150603f81600c1c168501518253600182019150603f8160061c168501518253600182019150603f8116850151825350600101614452565b6003895106600181146144c457600281146144d5576144e1565b613d3d60f01b6001198301526144e1565b603d60f81b6000198301525b509398975050505050505050565b6144f98383614660565b6001600160a01b0383163b156112f757600d548281035b6145236000868380600101945086612ed1565b614540576040516368d2bf6b60e11b815260040160405180910390fd5b8181106145105781600d54146112d557600080fd5b60008072184f03e93ff9f4daa797ed6e38ed64bf6a1f0160401b83106145945772184f03e93ff9f4daa797ed6e38ed64bf6a1f0160401b830492506040015b6d04ee2d6d415b85acef810000000083106145c0576d04ee2d6d415b85acef8100000000830492506020015b662386f26fc1000083106145de57662386f26fc10000830492506010015b6305f5e10083106145f6576305f5e100830492506008015b612710831061460a57612710830492506004015b6064831061461c576064830492506002015b600a8310610d6b5760010192915050565b6000614639838361539f565b6146438587615c78565b61464d9190615442565b6146579084615046565b95945050505050565b600d54816146815760405163b562e8dd60e01b815260040160405180910390fd5b61468e60008483856124b3565b6001600160a01b03831660008181526012602090815260408083208054680100000000000000018802019055848352601190915281206001851460e11b4260a01b17831790558284019083908390600080516020615f428339815191528180a4600183015b8181146147195780836000600080516020615f42833981519152600080a46001016146f3565b508161473757604051622e076360e81b815260040160405180910390fd5b600d5550505050565b82805482825590600052602060002090810192821561477b579160200282015b8281111561477b578235825591602001919060010190614760565b5061478792915061478b565b5090565b5b80821115614787576000815560010161478c565b6001600160e01b031981165b811461151e57600080fd5b8035610d6b816147a0565b6000602082840312156147d7576147d7600080fd5b60006127d484846147b7565b8015155b82525050565b60208101610d6b82846147e3565b806147ac565b8035610d6b816147fb565b60006020828403121561482157614821600080fd5b60006127d48484614801565b60005b83811015614848578181015183820152602001614830565b838111156113b35750506000910152565b6000614863825190565b80845260208401935061487a81856020860161482d565b601f01601f19169290920192915050565b60208082528101610ff08184614859565b60006001600160a01b038216610d6b565b6147e78161489c565b60208101610d6b82846148ad565b6147ac8161489c565b8035610d6b816148c4565b600080604083850312156148ee576148ee600080fd5b60006148fa85856148cd565b925050602061490b85828601614801565b9150509250929050565b806147e7565b60208101610d6b8284614915565b8015156147ac565b8035610d6b81614929565b6000806040838503121561495257614952600080fd5b600061495e8585614801565b925050602061490b85828601614931565b60008060006060848603121561498757614987600080fd5b600061499386866148cd565b93505060206149a4868287016148cd565b92505060406149b586828701614801565b9150509250925092565b60008083601f8401126149d4576149d4600080fd5b5081356001600160401b038111156149ee576149ee600080fd5b602083019150836020820283011115614a0957614a09600080fd5b9250929050565b60008060008060408587031215614a2957614a29600080fd5b84356001600160401b03811115614a4257614a42600080fd5b614a4e878288016149bf565b945094505060208501356001600160401b03811115614a6f57614a6f600080fd5b614a7b878288016149bf565b95989497509550505050565b60008060208385031215614a9d57614a9d600080fd5b82356001600160401b03811115614ab657614ab6600080fd5b614ac2858286016149bf565b92509250509250929050565b600060208284031215614ae357614ae3600080fd5b60006127d484846148cd565b600060208284031215614b0457614b04600080fd5b60006127d48484614931565b6000614b1c8383614915565b505060200190565b6000614b2e825190565b80845260209384019383018060005b83811015614b62578151614b518882614b10565b975060208301925050600101614b3d565b509495945050505050565b60208082528101610ff08184614b24565b634e487b7160e01b600052602160045260246000fd5b6002811061151e5761151e614b7e565b80614bae81614b94565b919050565b6000610d6b82614ba4565b6147e781614bb3565b60208101610d6b8284614bbe565b60008060408385031215614beb57614beb600080fd5b600061495e85856148cd565b634e487b7160e01b600052604160045260246000fd5b601f19601f83011681018181106001600160401b0382111715614c3257614c32614bf7565b6040525050565b6000614c4460405190565b9050614bae8282614c0d565b60006001600160401b03821115614c6957614c69614bf7565b601f19601f83011660200192915050565b82818337506000910152565b6000614c99614c9484614c50565b614c39565b905082815260208101848484011115614cb457614cb4600080fd5b61431e848285614c7a565b600082601f830112614cd357614cd3600080fd5b81356127d4848260208601614c86565b60008060008060808587031215614cfc57614cfc600080fd5b6000614d0887876148cd565b9450506020614d19878288016148cd565b9350506040614d2a87828801614801565b92505060608501356001600160401b03811115614d4957614d49600080fd5b614d5587828801614cbf565b91505092959194509250565b6000610d6b6001600160a01b038316614d78565b90565b6001600160a01b031690565b6000610d6b82614d61565b6000610d6b82614d84565b6147e781614d8f565b60208101610d6b8284614d9a565b60008060408385031215614dc757614dc7600080fd5b6000614dd385856148cd565b925050602061490b858286016148cd565b600080600060408486031215614dfc57614dfc600080fd5b83356001600160401b03811115614e1557614e15600080fd5b614e21868287016149bf565b935093505060206149b586828701614801565b634e487b7160e01b600052602260045260246000fd5b600281046001821680614e5e57607f821691505b6020821081141561128157611281614e34565b60168152600060208201752737ba1030b8383937bb32b2103737b91037bbb732b960511b815291505b5060200190565b60208082528101610d6b81614e71565b600f81526000602082016e125b9d985b1a59081d1bdad95b9259608a1b81529150614e9a565b60208082528101610d6b81614eb1565b600e81526000602082016d135bdc9c1a08191a5cd8589b195960921b81529150614e9a565b60208082528101610d6b81614ee7565b634e487b7160e01b600052603260045260246000fd5b600881526000602082016726bab9ba1037bbb760c11b81529150614e9a565b60208082528101610d6b81614f32565b634e487b7160e01b600052601160045260246000fd5b6000600019821415614f8b57614f8b614f61565b5060010190565b6000610d6b82614d75565b601181526000602082017015d2551211149055d05317d19052531151607a1b81529150614e9a565b60208082528101610d6b81614f9d565b6012815260006020820171141d589b1a58c81b5a5b9d0818db1bdcd95960721b81529150614e9a565b60208082528101610d6b81614fd5565b6011815260006020820170496e636f72726563742070617961626c6560781b81529150614e9a565b60208082528101610d6b8161500e565b6000821982111561505957615059614f61565b500190565b601181526000602082017045786365656473206d6178206d696e747360781b81529150614e9a565b60208082528101610d6b8161505e565b6000610d6b614d758381565b6147e781615096565b604081016150b982856150a2565b610ff06020830184614915565b60208082528101610d6b81602681527f4f776e61626c653a206e6577206f776e657220697320746865207a65726f206160208201526564647265737360d01b604082015260600190565b7f3c73766720786d6c6e733d22687474703a2f2f7777772e77332e6f72672f323081527f30302f737667222076696577426f783d2230203020333220333222207368617060208201527f652d72656e646572696e673d2263726973704564676573222077696474683d2260408201527f35313222206865696768743d22353132223e3c726563742077696474683d223160608201527f30302522206865696768743d2231303025222066696c6c3d22230000000000006080820152609a0190565b600081546151de81614e4a565b6001821680156151f5576001811461520657615236565b60ff19831686528186019350615236565b60008581526020902060005b8381101561522e57815488820152600190910190602001615212565b838801955050505b50505092915050565b6211179f60e91b815260005b5060030190565b600061525c825190565b61526a81856020860161482d565b9290920192915050565b651e17b9bb339f60d11b815260005b5060060190565b600061529582615110565b91506152a182886151d1565b91506152ac8261523f565b91506152b88287615252565b91506152c48286615252565b91506152d08285615252565b91506152dc8284615252565b91506152e782615274565b979650505050505050565b60208082527f4f776e61626c653a2063616c6c6572206973206e6f7420746865206f776e657291019081526000614e9a565b60208082528101610d6b816152f2565b600c81526000602082016b105b1c9958591e481919585960a21b81529150614e9a565b60208082528101610d6b81615334565b6011815260006020820170105b1c9958591e481cdbdd5b189bdd5b99607a1b81529150614e9a565b60208082528101610d6b81615367565b6000828210156153b1576153b1614f61565b500390565b6000610d6b8260601b90565b6000610d6b826153b6565b6147e76153d98261489c565b6153c2565b651c9a58989a5d60d21b81526000615283565b60006153fd8286614915565b60208201915061540d8285614915565b60208201915061541d82846153cd565b601482019150614657826153de565b634e487b7160e01b600052601260045260246000fd5b6000826154515761545161542c565b500690565b60008161546557615465614f61565b506000190190565b600081600019048311821515161561548757615487614f61565b500290565b600f81526000602082016e4d696e74206174206c65617374203160881b81529150614e9a565b60208082528101610d6b8161548c565b600781526000602082016604f7665726361760cc1b81529150614e9a565b60208082528101610d6b816154c2565b62089f4b60ea1b8152600061524b565b7f7b2274726169745f74797065223a22426f6479222c202276616c7565223a2200815260005b50601f0190565b7f7b2274726169745f74797065223a225761727473222c202276616c7565223a2281526000614e9a565b7f7b2274726169745f74797065223a224163636573736f72696573222c20227661815265363ab2911d1160d11b602082015260005b5060260190565b7f227d2c7b2274726169745f74797065223a22506c6174666f726d222c20227661815265363ab2911d1160d11b6020820152600061558c565b7f7b2274726169745f74797065223a224261636b67726f756e64222c202276616c8152643ab2911d1160d91b6020820152602501600061560c8289615252565b9150615617826154f0565b7f7b2274726169745f74797065223a2250616c65747465222c202276616c7565228152611d1160f11b602082015260220191506156548288615252565b915061565f826154f0565b915061566a82615500565b915061567682876151d1565b9150615681826154f0565b915061568c8261552d565b915061569882866151d1565b91506156a3826154f0565b91506156ae82615557565b91506156ba82856151d1565b91506156c582615593565b91506156d18284615252565b91506156dc826154f0565b98975050505050505050565b7f3c73766720786d6c6e733d22687474703a2f2f7777772e77332e6f72672f323081527f30302f737667222076696577426f783d2230203020333220333222207368617060208201527f652d72656e646572696e673d2263726973704564676573222077696474683d2260408201527f35313222206865696768743d22353132223e3c726563742077696474683d223160608201527f30302522206865696768743d2231303025222066696c6c3d222330303030303060808201526211179f60e91b60a082015260a30160006157be8284615252565b9150610ff082615274565b608081016157d782876148ad565b6157e460208301866148ad565b6157f16040830185614915565b81810360608301526158038184614859565b9695505050505050565b8051610d6b816147a0565b60006020828403121561582d5761582d600080fd5b60006127d4848461580d565b604081016158478285614915565b610ff060208301846147e3565b6000615862614c9484614c50565b90508281526020810184848401111561587d5761587d600080fd5b61431e84828561482d565b600082601f83011261589c5761589c600080fd5b81516127d4848260208601615854565b6000602082840312156158c1576158c1600080fd5b81516001600160401b038111156158da576158da600080fd5b6127d484828501615888565b6803d913730b6b2911d160bd1b815260005b5060090190565b61088b60f21b815260005b5060020190565b7f226465736372697074696f6e223a202254696e792042617365642046726f677381527f206973206120313030252066756c6c79206f6e2d636861696e204e465420636f60208201527f6c6c656374696f6e2c20666561747572696e6720756e666174686f6d6c79206260408201527f61736564206f6e2d636861696e20696e746572616374697665206d656368616e6060820152651a58dccb888b60d21b608082015260860190565b7f7b2274726169745f74797065223a22416c697665222c202276616c7565223a0081526000615526565b611f4b60f21b8152600061590a565b621f574b60ea1b8152600061524b565b7f22696d616765223a2022646174613a696d6167652f7376672b786d6c3b626173815263194d8d0b60e21b602082015260240190565b61227d60f01b8152600061590a565b6000615a54826158e6565b712254696e792042617365642046726f67202360701b81526012019150615a7b8289615252565b9150615a86826158ff565b9150615a9182615911565b6d2261747472696275746573223a5b60901b8152600e019150615ab48288615252565b9150615ac08287615252565b9150615acb826159bb565b9150615ad78286615252565b9150615ae2826159e5565b7f7b2274726169745f74797065223a22536f756c626f756e64222c202276616c7581526232911d60e91b60208201526023019150615b208285615252565b9150615b2b826159f4565b9150615b3682615a04565b9150615b428284615252565b91506156dc82615a3a565b7f646174613a6170706c69636174696f6e2f6a736f6e3b6261736536342c0000008152601d016000610ff08284615252565b6000615b8a826158e6565b712254696e792042617365642046726f67202360701b81526012019150615bb18285615252565b9150615bbc826158ff565b9150615bc782615911565b7f2261747472696275746573223a5b7b2274726169745f74797065223a2257616981527f74696e6720746f206861746368222c202276616c7565223a2254727565227d5d6020820152600b60fa1b60408201526041019150615c2882615a04565b9150615c348284615252565b91506127d482615a3a565b6000615c4a82615110565b9150615c5682856151d1565b9150615c618261523f565b9150615c6d8284615252565b91506127d482615274565b600082615c8757615c8761542c565b500490565b68222066696c6c3d222360b81b815260006158f8565b6000615cae8288615252565b6c1e3932b1ba103bb4b23a341e9160991b8152600d019150615cd08287615252565b6f11103432b4b3b43a1e911891103c1e9160811b81526010019150615cf58286615252565b6411103c9e9160d91b81526005019150615d0f8285615252565b9150615d1a82615c8c565b9150615d268284615252565b91506152e78261523f565b6000615d3d8286614915565b602082019150615d4d8285614915565b602082019150615d5d82846153cd565b506014019392505050565b7f7b2274726169745f74797065223a22486f7020506f776572222c20226469737081527f6c61795f74797065223a20226e756d626572222c202276616c7565223a0000006020820152603d016000615dc08287615252565b9150615dcb826159e5565b7f7b2274726169745f74797065223a225374616d696e61222c2022646973706c6181527f795f74797065223a20226e756d626572222c202276616c7565223a00000000006020820152603b019150615e238286615252565b9150615e2e826159e5565b7f7b2274726169745f74797065223a224c696c79205061642042616c616e63652281527f2c2022646973706c61795f74797065223a20226e756d626572222c202276616c6020820152633ab2911d60e11b60408201526044019150615e938285615252565b9150615e9e826159e5565b7f7b2274726169745f74797065223a225377696d205370656564222c202264697381527f706c61795f74797065223a20226e756d626572222c202276616c7565223a00006020820152603e019150615ef68284615252565b9150615803826159e556fe4142434445464748494a4b4c4d4e4f505152535455565758595a6162636465666768696a6b6c6d6e6f707172737475767778797a303132333435363738392b2fddf252ad1be2c89b69c2b068fc378daa952ba7f163c4a11628f55a4df523b3efa26469706673582212208bc529a36be659530907fbfc3d4111b795ba3cf91485856ec14c203cdae8a94264736f6c63430008090033ff006f0003010100020119000101030b0101020b010118000201020b0101020b010117000201030b0104010b0101010b0101150001010104010108040101130001010504070112000101050403010303010113000101020401010204030303011400020102040101030401010204020112000f01ff006f00030101000201190001010304010102040101180001010204010b0101010b0104010117000201010b0101010b0104010b0101010b0101150001010104010108040101130001010404080112000101050401010503010113000101020401010204030303011400020102040101030401010204020112000f018e0006011a000101040c01011a000101040c01011a000101040c01011a000101040c010117000301060d0301140001010a0c010115000a01ff006f000301010002011900010103040101020401011800010103040101010b020117000201010b0101010b0404010115000101010401010804010113000101030402010204050112000101060402010303010113000101020401010204030303011400020102040101030401010204020112000f01ff006f0003010100020119000101030401010204010118000101010b0101010b0101010b0201170002010704010115000101010401010804010113000101080404011200010106040503010113000101020401010204030303011400020102040101030401010204020112000f01b00002011d000101020501011b000101040f01011a0001010405010117000c01140001010105010901050109010501090105010901050109010115000a01ff006f0002010300020118000101020403010204010117000101010b020401010204010b010116000201010b0101010b0104010b0101010b0101150001010104010108040101130001010504070112000101050401010503010113000101020401010204030303011400020102040101030401010204020112000f01ab0002011e00010101100101010004011800010102100101040501011700020101100105040101050301130001010205010101050101020b0101010501010205010113000101020506100105020115000a01ff006f0003010100020119000101030401010204010118000101030401010204010117000201010b0101010b0104010b0101010b01011500010101040101080401011300010105040101010b0101010b030112000101050401010503010113000101020401010204030303011400020102040101030401010204020112000f01500002011d000101010e01011d000101010e010501011c000101020e01011b0001010105030e01011a000101030e010501011a000101040e010117000c0114000101010e0105030e0105020e0105010e010115000a01500004011b000101040801011900010106080101180001010108010102080101010801011800010101080101020801010108010119000101040801011a00010101080201010801011b00010102000101cf0004011b000101040b01011900080117000101080b010117000101060b010118000801d000040b1a00020b0400020b1700010b0400010b0300010b1500010b0200020b0600010b1400010b0200020b0600010b1300010b0c00010b1200010b0c00010b1200010b0c00010b1200010b0c00010b1300010b0a00010b1400010b0a00010b1500010b0800010b1700020b0400020b1a00040bff00ff00a90011010e00010102040e0c010401010d00010101040e0c020401010d0013010c00010101040f0c030401010b001501b20002011d000101020501011b000201020502011800020101050101010b01100101010502011400030102050101021001010205010114000101021301010605010115000a01ff00ff00a90011010e000101010302040203010c02040203010c02040103010c0104010301010d0001010104010c0203010c0104040c02040103020c0104010301010d0013010c000101010301040103020c01040103010c02040103020c02040103010c0104010301010b001501ff006f0003010100020119000101030401010204010118000101030401010204010117000201010b0101010b0104010b0101010b01011500010101040101080401011300010105040701120001010604010301010310010113000101020401010204030303011400020102040101030401010204020112000f01ff00ff00a90011010e0001010208070403030404010801010d0001010108070403030404020801010d0013010c0001010108060403030604030801010b001501ec000108010001081e00010105000108010001081e00010142000108010001081e000101510001141f0001141b000114020001141c000114020001141d00011402000114170001140400011403000114160001140300011404000114170001140300011402000114190001141f0001141e0001141f000114ff006f0003010100020119000101030401010204010118000101010b020401010204010117000201010b0101010b0104010b0101010b0101150001010104010108040101130001010504070112000101060401010403010113000101020401010204030303011400020102040101030401010204020112000f01ce00020102000201190001010213020102130101180001010613010117000201061302011500010101130101060b010101130101140001010a13010115000a01ff006f0003010100020119000101030b0101020b010118000101010b0101010b0101010b020117000201030b0104030b0101150001010104010108040101130001010504070112000101050401010503010113000101020401010204030303011400020102040101030401010204020112000f01700002011d000101020b01011d0002011d0001010108011001011c000101021001011b0001010210020801011a0001010308011001011900010102080410010118000101010803100208010119000701ff006f000301010002011900010103040101020401011800010103040101020401011700050101040401150001010104010108040101130001010504070112000101050401010503010113000101020401010204030303011400020102040101030401010204020112000f01ff006f000601190001010204030b01040101180001010204010b0101010b01040101170002010204030b02040101150001010104010108040101130001010504070112000101050401010503010113000101020401010204030303011400020102040101030401010204020112000f01ce00060119000101060c010118000101060c010117000201060d0201150001010a0c010114000c01ff006f0003010100020119000101030401010204010118000101030b0101020b010117000201010b0101010b0104010b0101010b01011500010101040101080401011300010104040801120001010504010301010410010113000101020401010204020304011400020102040101030401010204020112000f01500003011c000101030801011a000101020802000108010119000101010803000108010119000201030802011a0005011b000101030501011c0003018d0001010600010117000101010b010104000101010b010115000101020b010104000101020b010114000101020b0601020b010114000101010b01010304020301040101010b0101150001010204010b0104020302040101160001010404020302040101160001010803010116000a01ff006f00030101000201190001010304010102040101180001010104010b010401010104010b0101170002010104010b0304010b01040101150001010104010108040101130001010504070112000101050401010503010113000101020401010204030303011400020102040101030401010204020112000f01ff006f000301010002011900010103080101020801011800010103080101020801011700020101080101030801010108010115000101010b010108080101130001010208010b010101080101010801010108030112000101010b0108030b0101010b0101010b0101010b010113000101020b0101010b0108030b03011400020102080101030801010208020112000f01ff006f0003010100020119000101030401010204010118000101030401010204010117000201010b0101010b0104010b0101010b01011500010101040101030b0104030b01040101130001010504070112000101050401010503010113000101020401010204030303011400020102040101030401010204020112000f01ff00ff00a90011010e0001010208040501010108030301010405010801010d0001010108050501010303010801010305020801010d0013010c00010101080f05030801010b001501ff006f0003010100020119000101030401010204010118000101030401010204010117000201010b0101010b0104010b0101010b01011500010101040101080401011300010103040101030b02010204010112000101050403010303010113000101020401010204030303011400020102040101030401010204020112000f016f000201010002011a0001010210010102100101180001010110010b05100101170001010710010118000101051001011a000101031001011c000101011001011e000101ff006f0003010100020119000101030401010204010118000101030401010204010117000201010b0101010b0104010b0101010b01011500010101040201071001011300010103040101011007011200010104040101061001011300010102040101020406011400020102040101030401010204020112000f01ff000c000201080002011300010101060101080001010106010112000101010501010800010101050101120001010206010106000101020601011200010101050101080001010105010113000201080002018d0008011800010106120101180001010612010119000101021203011a000101011201010305010116000401010b010101050101010503011400010104120101030501010112010115000a01ff006f0003010100030118000101010b0101010b0101010b0101010b010117000101010b0101010b0101010b0101010b010116000201010b0101010b0104010b0101010b0101150001010104010108040101130001010504070112000101050401010503010113000101020401010204030303011400020102040101030401010204020112000f01ff00ac0001011e00010101031c0002011d00010102031d0001010103020001031c000101ae00030101000201190001010308010102080101170001010408010102080101170001010208010a01010108010a0101180001010208010a01010108010a0101180001010208010a01010108010a01011800010101080200010101080101190001011f000101ff00ff00a90011010e00010102130e16011301010d00010101130e16021301010d0013010c00010101130f16031301010b001501eb0003011d000101020b010118000501030b010117000101030b0101010b0101020b010116000101040b0101010b19000101020b0101020b1b000101020b0101010b1c000101020b1e000101ee0006011900010106040101180008011700010108040101160001010804010116000a01ff006f0003010100020119000101030b0101020b010118000101030b0101020b010117000201010b0101010b0104010b0101010b010115000101010401010804010113000101040402010504010112000101050401010503010113000101020401010204030303011400020102040101030401010204020112000f014c00080118000801140004010819040110000401081904010e000201021904080a1902010c000201021904080a1902010a000201021908080a19020108000201021908080a19020108000201021908080a19020108000201021908080a190201060002010619040802190601061902010400020106190408021906010619020104000201021904080419020102190601041902010400020102190408041902010219060104190201040002010219040804190a0104190201040002010219040804190a0104190201040002010a190a0104190201040002010a190a0104190201060002010a19060104190201080002010a19060104190201080002011419020108000201141902010a000201101902010c000201101902010e0004010819040110000401081904011400080118000801ad00060118000a01150003010108080113000e0112000e0112000e011200050103000101020003011300030108000101150002018d0006011900010106090101160002010209010105090101140001010208010903010309020114000101020802010609010115000c01150001010a08010115000a01ff006f00030101000201190001010304010102040101180001010104010b010401010104010b010117000201010401010304010101040101150001010104010108040101130001010404080112000101040402010503010113000101020401010204030303011400020102040101030401010204020112000f01ff006f0003010100020119000101030401010204010118000101010b0101010b0101010b020117000201070401011500010101040101010401010604010113000101050407011200010106040503010113000101020401010204030303011400020102040101030401010204020112000f01ff006f0003010100020119000101030401010204010118000101030401010204010117000201010b0101010b0104010b0101010b010115000101010401010804010113000101050402030201020301011200010105040603010113000101020401010204030303011400020102040101030401010204020112000f01700003011c0001010108020401011b000101030401011c000101010401011d000101010401011a00040101040401160001010904010115000b011a000108ff006f0003010100020119000101030401010204010115000601010802010108010115000101010003010108020101080301150001010104010108040101130001010504070112000101050401010503010113000101020401010204030303011400020102040101030401010204020112000f01cd0007011800010101040101050901011600010101040201050901011500010101040201060901011500010101040201060401011600010101000801ff00ff00a70015010a0001010217011801010417010102170118010104170101031701010900010101170118020104180101011801170118010104180201011801170101090001010118090101180901011801010900030107180301071803010a001501ff006f0003010100020116000b011500010102000201010b0301010b01011700050101040401150001010104010108040101130001010504070112000101050401010503010113000101020401010204030303011400020102040101030401010204020112000f01ff006f000301010002011900010103040101020401011800080117000201010b0101010b0104010b0101010b010115000101010401010804010113000101040408011200010105040603010113000101020401010204030303011400020102040101030401010204020112000f01500001011d0005011a000101050801011a0005011d0001011d0005011a000101011103090107010118000101021103090207010117000101021103090107050114000d01ff006f0003010100020119000101030401010204010118000101030401010204010117000201010b0101010b0104010b0101010b0101150001010104010108040101130001010504070112000101050401010503010113000101020401010204030303011400020102040101030401010204020112000f01ff006f0003010100020119000101030401010204010118000101030401010204010117000201010b0101010b0104010b0101010b01011500010101040101080406010e0001010504070101150208011001010d00010105040101050307010d000101020401010204030303011400020102040101030401010204020112000f01",
  "linkReferences": {},
  "deployedLinkReferences": {}
}